:100000000C940B010C944F420C94FA420C942A016C
:100010000C942A010C94A5430C9452440C94FF4474
:100020000C94AC450C94A4410C946F340C942A01AC
:100030000C942A010C9457460C942A010C942A0122
:100040000C94AA020C942A010C942A010C942A0103
:100050000C942A010C942A010C942A010C949346C6
:100060000C942A010C94AA460C940F470C9419473F
:100070000C942A010C9423470C942A010C942A0115
:100080000C942A010C942A010C942A010C942A0144
:100090000C942A010C942A01084AD73B3BCE016EEE
:1000A00084BCBFFDC12F3D6C74319ABD56833DDACF
:1000B0003D00C77F11BED9E4BB4C3E916BAAAABEDE
:1000C000000000803F05A84CCDB2D44EB93836A907
:1000D000020C50B9918688083CA6AAAA2ABE000044
:1000E00000803F08000000BE922449123EABAAAA3D
:1000F0002ABECDCCCC4C3E00000080BEABAAAAAA42
:100100003E00000000BF000000803F000000000033
:10011000084178D3BB4387D1133D190E3CC3BD4280
:1001200082AD2B3E68EC8276BED98FE1A93E4C8031
:10013000EFFFBE01C4FF7F3F00000000000664EC3B
:100140001B3C04BC163E3BE5B93CC93C37C29E5A39
:100150003D660498083EEA69AAAA3E000000803F76
:100160001201000200000040EB0314209000010285
:10017000000109022900010100804B09040000026E
:10018000030000000921110100012235000705814B
:10019000034000010705020340000A0C034100541C
:1001A000004D0045004C00360353004D0041004C0B
:1001B000004C00540049004D0060005300200041F5
:1001C00000550054004F00500049004C004F0054AF
:1001D00000200042004F0041005200440004030987
:1001E0000406FFFF0901A10109020903150026FF0A
:1001F0000075089540810209040905150026FF00D5
:1002000075089540910209060907150026FF00753B
:10021000089504B102C011241FBECFEFD0E2DEBFAB
:10022000CDBF11E0A0E0B1E0EEE4F0E101E00BBFF2
:1002300002C007900D92AC3EB107D9F712E1ACEEC7
:10024000B1E001C01D92AE3CB107E1F70E94A235BA
:100250000C9425880C94000010924E0B8091AA05F6
:100260009091AB0585309105B0F18091F207823015
:1002700091F58091F107813071F58091A311813062
:1002800051F580934E0B80915E08813009F04AC091
:1002900060911E0870911F0880912008909121089C
:1002A00024EE38E34EE85EE30E946B8520912A0835
:1002B00030912B0840912C0850912D080E946B859D
:1002C00060934A0B70934B0B80934C0B90934D0BA8
:1002D0000E94008008958091C0058130B9F460913A
:1002E0007F0870918008809181089091820820E0B9
:1002F00030E048EC51E40E94158518163CF48091DA
:10030000A311882319F082E080934E0B8091860C14
:100310009091870C6EE170E00E947E86009711F448
:100320000E94008008958498839881B3807181BB76
:1003300081B3887081BB089583988EE090E0FC01C2
:100340003197F1F7849A0197F1F70895849A8EE036
:1003500090E0FC013197F1F78398E7E0F0E0319706
:10036000F1F784980197F1F7089598E067E070E05D
:100370004EE050E0839AFB013197F1F787FF02C00E
:10038000849801C0849AFA013197F1F78398FA01B1
:100390003197F1F720E030E002C02F5F3F4F7B99AB
:1003A00003C024363105C9F7915011F0880FE2CF10
:1003B000839A87E090E00197F1F784988EE090E0CF
:1003C000FC013197F1F78398FC013197F1F72FB1D8
:1003D000839A0197F1F781E024FD80E00895782F5A
:1003E000849868E090E880E04EE050E0839AFA015B
:1003F0003197F1F78398FA013197F1F725E630E06C
:100400007B9903C021503040D9F77C99892B6150EA
:1004100011F09695EBCF839AE7E0F0E03197F1F792
:10042000772311F0849A01C084982EE030E0F9011E
:100430003197F1F78398F9013197F1F7839AF90130
:100440003197F1F70895EF92FF921F93DF93CF93C7
:100450000F92CDB7DEB7162F7A0189830E949C01D7
:100460008981880F0E94B50106C0F70181917F0143
:100470000E94B50111501123C1F70E94A6010F90EF
:10048000CF91DF911F91FF90EF900895EF92FF922F
:100490001F93DF93CF9300D00F92CDB7DEB7162F07
:1004A0004A835B8389830E949C018981880F8160D4
:1004B0000E94B5014A815B817A010AC081E0123055
:1004C00008F480E00E94EF01F70181937F01115051
:1004D0001123A1F70E94A6010F900F900F90CF91CA
:1004E000DF911F91FF90EF90089590E0FC01EB5594
:1004F000FE4EE081F894DC01AA0FBB1FAA58B44F4E
:10050000F0E0EE0FFF1FE45FFD4F20813181119677
:100510003C932E937894FC01EC58F44F22A52F5F66
:1005200022A72D913C91DC01AA0FBB1FA155B14F11
:1005300017968D919C9118978217930750F45796B0
:100540008D919C9158972817390718F482A18F5FD5
:1005500082A308951F920F920FB60F920BB60F92BF
:1005600011242F933F938F939F93EF93FF93E091E9
:100570000A02F0910B02809186009091870091838E
:1005800080838091810086FF05C000B605FE09C00A
:100590008AE104C000B605FC04C08AE580938100AE
:1005A0001FC03296F0930B02E0930A0280912E0254
:1005B00090912F02E817F90740F080912C0290915A
:1005C0002D0290930B0280930A02809186009091F5
:1005D0008700E0910A02F0910B0244969183808398
:1005E00080910A0290910B02029690930B028093E5
:1005F0000A0220912E0230912F028217930740F0B9
:1006000080912C0290912D0290930B0280930A020C
:10061000FF91EF919F918F913F912F910F900BBE82
:100620000F900FBE0F901F90189580E096E00E94EB
:10063000E2869C0190932D0280932C0290930B02F2
:1006400080930A0290934A028093490220503A4FC5
:1006500030932F0220932E021092730B81E080932F
:1006600001011092ED018BE2809380008AE180937A
:10067000810084E480BF8FE39CE99093890080939C
:100680008800EFE6F0E080818062808382E08093E2
:100690007F001DBA1092680010926B0010926E00DD
:1006A00008951F93CF93DF9380910201882309F06F
:1006B0007BC0809130028F3009F076C08091480273
:1006C000882309F071C0ECE0F2E041E051E026C07F
:1006D000880F991FA52FB0E0A05DBD4F7C917423BA
:1006E00011F0282B392B403819F45F5F41E001C02D
:1006F000440F615069F7C901880F991F880F991F2E
:10070000820F931F96958795969587958052994F5E
:100710008193919382E0EC31F80731F06BE081E056
:1007200090E020E030E0D6CF1092EC0110E0812F75
:100730000E9475021F5F1830D1F780914602807CBD
:10074000803C61F580914402829586958770C82F20
:10075000D0E08091450290E043E0880F991F4A95D0
:10076000E1F7C82BD92BD070BE0180E090E00E9449
:1007700005842DEC3CEC4CEC5DE30E946B856093B2
:100780009B0870939C0880939D0890939E0881E03D
:100790008093720BD0939905C0939805809147027E
:1007A00088708093730B0DC08091EF019091F001E0
:1007B00001969093F0018093EF01909397058093B9
:1007C00096051092F3011092F6011092F401109226
:1007D000F50188E180930201DF91CF911F91089587
:1007E0008F929F92BF92CF92DF92EF92FF920F93E0
:1007F0001F93DF93CF930F92CDB7DEB7F894E090BD
:100800000A02F0900B02789488249924082F10E0B3
:1008100030E1B32ECC24C394DD24DA9496C08191C8
:100820009191F0934A02E093490220912C02309179
:100830002D02A90140505A4FE417F50720F03093DC
:100840004A02209349024091F1015091F2019C012A
:10085000241B350B4817590710F0205C3346909342
:10086000F2018093F1018091F7018F5F8093F7018E
:1008700080FD05C03093F9012093F80163C0809199
:10088000F8019091F901820F931F20910101222319
:1008900059F1233398F0109201018091EE018B30D1
:1008A00018F0D092ED014EC08091ED018B3018F020
:1008B000C092ED0147C01092ED0144C0813F910507
:1008C00030F48091EE018F5F8093EE0109C036E035
:1008D0008034930728F48091ED018F5F8093ED01C0
:1008E0002F5F209301012EC02091ED01222311F0F2
:1008F000880F991FE3E188389E0770F0109200017D
:100900001092EC0190E0892F99830E9475029981E1
:100910009F5F9830C1F716C0F5E08C3D9F0780F0CF
:1009200020910001203160F4E22FF0E0EE0FFF1F74
:10093000E45FFD4F918380832F5F2093000102C00D
:10094000B09200010894811C911CE0914902F09141
:100950004A02EE15FF0521F08016910608F45FCFDC
:100960000F90CF91DF911F910F91FF90EF90DF904B
:10097000CF90BF909F908F9008950F931F930A96EA
:1009800064E170E00E947E86862F81508A3008F0F4
:1009900061C00091F401202F30E07091F601B09118
:1009A000F301A091F5011091020189E090E0772315
:1009B00051F4613011F0013019F01092F60117C0B6
:1009C000615071E034C0B00F7A3058F4AC01471B6D
:1009D0005109F90102C0EE0FFF1F4A95E2F7AE2B55
:1009E00025C07A3019F5002349F07093F601B093D1
:1009F000F301A093F501109302012CC0B0FDF5CFD7
:100A0000E12FF0E0E05DFD4FA083112351F47093DE
:100A1000F601B093F301A093F5011092020182E078
:100A20001AC01150A0E0B0E070E001C07F5F6150DB
:100A300009F0BDCF7093F601B093F301A093F501D7
:100A40001093020181E09091F401891B8093F401DD
:100A500080E001C081E01F910F910895CF93DF9353
:100A6000FC0180819181A0912C02B0912D02ED01B9
:100A7000C250DA4F15C03297EA17FB0708F4FE019F
:100A8000408151818417950720F49C01205C3346F6
:100A900001C09C01241B350BCA01213F310528F4FC
:100AA000E617F70741F7E0E0F0E0CF01DF91CF91E3
:100AB0000895CF93DF938091ED018F3F21F080E483
:100AC0000E94F00382C0F89460910A0270910B02B8
:100AD0008091840090918500789420914902309112
:100AE0004A022617370709F470C070934A026093D0
:100AF0004902EB01229720912C0230912D02C2175E
:100B0000D30718F4E901C250DA4F288139818217DE
:100B1000930710F4805C9346821B930B803F9105F2
:100B200038F4CE010E942E05EC01009709F44DC067
:100B3000888199819093F2018093F1011092F301E1
:100B40001092F4011092F50181E08093F60188E1A2
:100B50008093020133C0229780912C0290912D0244
:100B6000C817D90718F4EC01C250DA4F288139812F
:100B70008091F1019091F2012817390710F0805C03
:100B80009346821B930B3093F2012093F1010E9454
:100B9000BD04882399F0823019F40E94510315C0D6
:100BA0008091EF019091F00101969093F001809374
:100BB000EF01909397058093960507C080914902B5
:100BC00090914A02C817D90731F6DF91CF91089565
:100BD00040E0E0E0F0E08491480F31962FEFEF3FE6
:100BE000F207C9F78FEF9FEFA0E0B0E0ABBFFC01C9
:100BF0002791420F0196A11DB11D8F3F2DEF920746
:100C000021E0A20720E0B20789F78091B50E841792
:100C100019F420E030E002C02FEF3FEF8091B40ED6
:100C2000813D39F081ED8093B40E4093B50E21E003
:100C300030E0C901089580E090E0089580E090E000
:100C4000089580E090E0089580E090E0089580E0CD
:100C500090E0089580E090E0089580E090E00895AD
:100C600080E090E008950E947C7181E08093C2054D
:100C70000E94B6471092C2050E947E71089580E4DA
:100C80009FEF9093F1008150E1F78091E8008E7F13
:100C90008093E8008091E8008F778093E8000895C2
:100CA0008091C2058823E9F182E08093E900809178
:100CB000E80082FF0CC08091F1008091E8008B7FFA
:100CC0008093E8008091E8008F778093E80081E0CE
:100CD0008093E9008091E80085FF23C08EEF809328
:100CE000F1008091F2088093F1008091F3088093E5
:100CF000F1008091F4088093F1008091F5088093D1
:100D0000F10080E08093F1008F5F8034D9F780910B
:100D1000E8008E7F8093E8008091E8008F778093D1
:100D2000E800089508950F931F93DF93CF9300D0A9
:100D300000D000D0CDB7DEB781E08093E90080918C
:100D4000E80085FFF8C46091FB017091FC0180917F
:100D5000FD019091FE0125E030E040E050E00E946E
:100D6000A586611571058105910509F0B4C18AEA6E
:100D70008093F1006091080B7091090B80910A0B30
:100D800090910B0B20E030E041EE54E40E946B8523
:100D90002BED3FE049E450E40E946C830E94D48331
:100DA0007A8369838E010F5F1F4F6093F100F80112
:100DB00081818093F10060910C0B70910D0B8091FB
:100DC0000E0B90910F0B20E030E041EE54E40E94B6
:100DD0006B852BED3FE049E450E40E946C830E9458
:100DE000D4837A8369836093F100F80181818093D1
:100DF000F1006091100B7091110B8091120B90918A
:100E0000130B20E030E041EE54E40E946B852BEDA3
:100E10003FE049E450E40E946C830E94D4837A83CB
:100E200069836093F100F80181818093F100E3E828
:100E3000FDE080818093F10081818093F100329602
:100E40008DE0ED38F807A9F76091A0087091A1082E
:100E50008091A2089091A30820E030E041EE54E494
:100E60000E946B852BED3FE049E450E40E946C83C7
:100E70000E94D4837A8369836093F100F8018181B1
:100E80008093F1006091A4087091A5088091A60854
:100E90009091A70820E030E041EE54E40E946B8579
:100EA0002BED3FE049E450E40E946C830E94D48320
:100EB0007A8369836093F100F80181818093F10066
:100EC0006091B8087091B9088091BA089091BB08F8
:100ED00020E030E041EE54E40E946B852BED3FE0D2
:100EE00049E450E40E946C830E94D4837A8369832E
:100EF0006093F100F80181818093F1006091BC085A
:100F00007091BD088091BE089091BF0820E030E04C
:100F100041EE54E40E946B852BED3FE049E450E440
:100F20000E946C830E94D4837A8369836093F1006A
:100F3000F80181818093F1006091560F7091570FF5
:100F40008091580F9091590F20E030E044E353E432
:100F50000E946B852BED3FE049E450E40E946C83D6
:100F60000E94D4836093F10060915A0F70915B0FDF
:100F700080915C0F90915D0F20E030E044E353E4FA
:100F80000E946B852BED3FE049E450E40E946C83A6
:100F90000E94D4836093F100E8E6F5E080818093BD
:100FA000F10081818093F100329685E0E837F807FF
:100FB000A9F7809175088093F1008091760880935D
:100FC000F100809173088093F10080917408809300
:100FD000F10080916B108093F10080916C108093F0
:100FE000F10060919B0870919C0880919D08909100
:100FF0009E0820E030E040E251E40E946B850E94B0
:10100000D9836093F10080919F088093F1008091D3
:10101000A0118093F1006091140B7091150B8091D9
:10102000160B9091170B20E030E041EE54E40E9443
:101030006B852BED3FE049E450E40E946C830E94F5
:10104000D4837A8369836093F100F801818180936E
:10105000F1006091180B7091190B80911A0B90910F
:101060001B0B20E030E041EE54E40E946B852BED39
:101070003FE049E450E40E946C830E94D4837A8369
:1010800069836093F100F80181818093F1006091A0
:101090001C0B70911D0B80911E0B90911F0B20E07B
:1010A00030E041EE54E40E946B852BED3FE049E4D3
:1010B00050E40E946C830E94D4837A836983609396
:1010C000F100F80181818093F10080E49AEA909325
:1010D000F1008150E1F76091FB017091FC0180917A
:1010E000FD019091FE0125E030E040E050E00E94DB
:1010F000A586613071058105910509F0C8C086E5B6
:101100008093F10080912C0B8093F10080912D0B46
:101110008093F10080912E0B8093F10080912F0B32
:101120008093F1008091300B8093F1008091310B1E
:101130008093F10080913E0B8093F10080913F0BF2
:101140008093F1008091400B8093F1008091410BDE
:101150008093F1008091420B8093F1008091430BCA
:101160008093F1008091440B8093F1008091450BB6
:101170008093F1008091460B8093F1008091470BA2
:101180008093F1008091480B8093F1008091490B8E
:101190008093F1006091D9087091DA088091DB08A2
:1011A0009091DC0820E030E041EE54E40E946B8531
:1011B0002BED3FE049E450E40E946C830E94D4830D
:1011C0007A8369836093F1008A818093F100609152
:1011D000350F7091360F8091370F9091380F20E0C6
:1011E00030E044E353E40E946B852BED3FE049E49B
:1011F00050E40E946C830E94D4836093F100EEE877
:10120000F5E081918093F10085E0E539F807C9F7B1
:101210003F9781918093F10085E0ED38F807C9F799
:10122000399680818093F10081818093F10032961C
:1012300085E0E43AF807A9F78091A6058093F100CC
:101240008091A7058093F1008091A8058093F1001B
:101250008091A9058093F1008091AA058093F10007
:101260008091AB058093F1008091AD058093F100F2
:101270008091A50D8093F1008091A60D8093F100DF
:1012800080E09AEA9093F1008F5F8034D9F7609103
:10129000FB017091FC018091FD019091FE0125E020
:1012A00030E040E050E00E94A58662307105810583
:1012B000910509F0FFC08CEA8093F1008091F4075A
:1012C0008093F1008091F0078093F1008091F20704
:1012D0008093F1008091F3078093F10080910208E0
:1012E0008093F100809103088093F10080910408BD
:1012F0008093F100809105088093F10080910608A9
:101300008093F100809107088093F1008091080894
:101310008093F100809109088093F10080910A0880
:101320008093F10080910B088093F10080910C086C
:101330008093F10080910D088093F1008091F60771
:101340008093F1008091F7078093F1008091F80776
:101350008093F1008091F9078093F1008091FA0762
:101360008093F1008091FB078093F1008091FC074E
:101370008093F1008091FD078093F1008091FE073A
:101380008093F1008091FF078093F1008091000825
:101390008093F100809101088093F10080912208F0
:1013A0008093F100809123088093F10080912408BC
:1013B0008093F100809125088093F10080912E08A0
:1013C0008093F10080912F088093F1008091300884
:1013D0008093F100809131088093F10080910E0894
:1013E0008093F10080910F088093F10080911008A4
:1013F0008093F100809111088093F10080911E0884
:101400008093F10080911F088093F1008091200863
:101410008093F100809121088093F100809142082F
:101420008093F100809143088093F10080914408FB
:101430008093F100809145088093F10080916B08C2
:101440008093F10080916C088093F10080916D0889
:101450008093F10080916E088093F100809156088E
:1014600090915708A0915808B091590820915A08B6
:1014700030915B0840915C0850915D08821B930B92
:10148000A40BB50B8B839C83AD83BE83FE01339687
:101490008093F10081818093F10082818093F1003B
:1014A00083818093F10080E09FEF9093F1008F5F44
:1014B0008034D9F76091FB017091FC018091FD01AE
:1014C0009091FE0125E030E040E050E00E94A586CA
:1014D000633071058105910509F062C080E6809353
:1014E000F1001092F100E7E9FCE080818093F100C7
:1014F00081818093F10032968CE0E73AF807A9F7F2
:10150000E6EDFEE080818093F10081818093F1001F
:1015100032968EE0E63EF807A9F7709680818093B8
:10152000F10081818093F10032968FE0E630F80778
:10153000A9F780912A128093F10080912B12809359
:10154000F10080912E128093F10080912F128093F0
:10155000F100809132128093F100809133128093D8
:10156000F100809136128093F100809137128093C0
:10157000F10080913A128093F10080913B128093A8
:10158000F10080913E128093F10080913F12809390
:10159000F10080E09AEA9093F1008F5F8034D9F7F0
:1015A0006091FB017091FC018091FD019091FE0121
:1015B00025E030E040E050E00E94A58664307105EF
:1015C0008105910509F09AC080E68093F10081E0E1
:1015D0008093F100E6EEFEE080818093F10081814E
:1015E0008093F10032968EE0E63FF807A9F7E6EB2C
:1015F000FEE080818093F10081818093F10032963A
:101600008EE0E63CF807A9F780818093F1008181A4
:101610008093F10032968EE0E63DF807A9F78091BD
:10162000FB088093F1008091AF058093F1008091D9
:10163000B0058093F1008091B1058093F100809115
:10164000B2058093F1008091DD088093F100E09174
:101650007805E093F100F0E0E155F14F808180934F
:10166000F1008091AE058093F1006091D4087091F3
:10167000D5088091D6089091D70820E030E048EC5A
:1016800052E40E946B850E94D4836093F1006091C4
:10169000CC087091CD088091CE089091CF0820E0C1
:1016A00030E048EC52E40E946B850E94D483609342
:1016B000F1006091D0087091D1088091D20890918A
:1016C000D30820E030E048EC52E40E946B850E9491
:1016D000D4837A8369836093F100E0917905E09384
:1016E000F100F0E0E456FE4E80818093F10080E04E
:1016F0009AEA9093F1008F5F8034D9F78091FB01D3
:101700009091FC01A091FD01B091FE010196A11DF7
:10171000B11D8093FB019093FC01A093FD01B09358
:10172000FE018091E8008E7F8093E8008091E800C0
:101730008F778093E80026960FB6F894DEBF0FBE31
:10174000CDBFCF91DF911F910F9108958091FA0144
:101750008F5F8093FA010895109A80EA96E8A1E0DD
:10176000B0E000000197A109B109D9F7119A1098CA
:1017700080EA96E8A1E0B0E000000197A109B10974
:10178000D9F7129A119880EA96E8A1E0B0E000003B
:101790000197A109B109D9F7139A129880EA96E83E
:1017A000A1E0B0E000000197A109B109D9F71398B1
:1017B000089580E090E0109A119A129A139A20E00E
:1017C00030E000002F5F3F4F4EE420323407C9F76E
:1017D000109811981298139820E030E000002F5FC5
:1017E0003F4F4EE420323407C9F701968A30910505
:1017F00011F708952F923F924F925F926F927F92CE
:101800008F929F92AF92BF92CF92DF92EF92FF9210
:101810000F931F93DF93CF93CDB7DEB7C35CD04058
:101820000FB6F894DEBF0FBECDBF1C821B8282E0D4
:101830008093E9008091E80082FD02C00C9426208C
:10184000FE017996CE01875A9F4F2091F100219396
:10185000E817F907D1F78091E8008B7F8093E800C3
:101860008091E8008F778093E800898D853511F0AD
:101870000C9426208A8D8A3A11F00C9426208B8DA8
:10188000853511F00C9426208C8D8A3A11F00C9439
:1018900026208D8D893C11F40C9461188A3C08F047
:1018A00073C0823B09F4A3C6833B98F5833A09F4DD
:1018B0004FC4843AB0F48F3009F47DC1803148F4CC
:1018C000813011F40C942C20833011F00C942620DC
:1018D000DDC0813A09F40BC3823A11F00C94262042
:1018E0008CC3883A09F49AC5893A40F4843A09F4D9
:1018F000AEC4873A11F00C94262027C58B3A09F420
:1019000057C2813B09F4F3C58A3A11F00C942620A2
:10191000BFC18E3B11F40C9476168F3BD8F4883BF4
:1019200009F4ADC7893B40F4843B09F474C6853B98
:1019300011F00C94262029C78C3B11F40C945315FC
:101940008D3B10F00C940116893B11F00C9426206D
:101950000C94D914853C11F40C94A917863C50F4CE
:10196000813C11F40C941D17843C11F00C9426203A
:101970000C94A217873C11F40C94B717883C10F014
:101980000C9450180C94B017883D11F40C94A01CC2
:10199000893DD0F58F3C11F40C94F719803DD0F4BB
:1019A0008C3C11F40C9499188D3C50F48A3C11F441
:1019B0000C9475188B3C11F00C9426200C9487180D
:1019C0008D3C11F40C9415198E3C11F00C942620CA
:1019D0000C949019843D11F40C94321B853D50F405
:1019E000803D11F40C94591A813D11F00C9426207D
:1019F0000C94C81A863D11F40C94EF1B873D10F02F
:101A00000C944A1C0C94931B803E11F40C949E1E63
:101A1000813EF0F48B3D11F40C94941D8C3D50F4F8
:101A2000893D11F40C94F51C8A3D11F00C9426208C
:101A30000C94451D8E3D11F40C94231E8F3D10F027
:101A40000C94631E8C3D11F00C9426200C94DE1D2A
:101A5000833E11F40C94311F843E50F4813E11F406
:101A60000C94D41E823E11F00C9426200C94051F79
:101A7000853E11F40C947A1F853E10F40C94581F87
:101A8000863E11F00C9426200C94971FC755DF4F0B
:101A90001882C95AD040C855DF4F1882C85AD04062
:101AA000C955DF4F1882C75AD040DD24AA24CF542D
:101AB000DF4F1882C15BD040CA55DF4F1882C65A2B
:101AC000D040C055DF4F1882C05BD040CB55DF4FB0
:101AD0001882C55AD040C155DF4F1882CF5AD04026
:101AE000CC55DF4F1882C45AD040C255DF4F188200
:101AF000CE5AD040CD55DF4F1882C35AD040C3557F
:101B0000DF4F1882CD5AD040CE55DF4F1882C25ACF
:101B1000D040C455DF4F1882CC5AD040CF55DF4F4C
:101B20001882C15AD0402224C056DF4F1882C05AB2
:101B3000D0403324C156DF4F1882CF59D0404424BF
:101B4000C256DF4F1882CE59D0405524C356DF4FBE
:101B50001882CD59D040772400E06624C456DF4F68
:101B60001882CC59D040C556DF4F1882CB59D0408F
:101B7000C656DF4F1882CA59D04010E08824FF248F
:101B80009924EE24BB24C756DF4F1882C959D04090
:101B9000CC24C555DF4F1882CB5AD040C655DF4FF5
:101BA0001882CA5AD0408E8D80936B108F8D80938F
:101BB0006C100C9446218E8D8B838F8D8C83C75532
:101BC000DF4F1882C95AD040C855DF4F1882C85A13
:101BD000D040C955DF4F1882C75AD040DD24CA55BE
:101BE000DF4F1882C65AD040CB55DF4F1882C55AF6
:101BF000D040CC55DF4F1882C45AD040CD55DF4F6E
:101C00001882C35AD040CE55DF4F1882C25AD040F6
:101C1000CF55DF4F1882C15AD040C056DF4F1882CF
:101C2000C05AD040C156DF4F1882CF59D040C2565B
:101C3000DF4F1882CE59D040C356DF4F1882CD599E
:101C4000D04000E0C456DF4F1882CC59D040C55672
:101C5000DF4F1882CB59D040C656DF4F1882CA5981
:101C6000D04010E0FF24EE24C756DF4F1882C95938
:101C7000D04083E58CBD81E08093C205129AAB8091
:101C8000BC80A114B10411F00C944E210C94492194
:101C9000C755DF4F1882C95AD040C855DF4F188248
:101CA000C85AD040C955DF4F1882C75AD040DD24EA
:101CB000AA24CF54DF4F1882C15BD040CA55DF4FF2
:101CC0001882C65AD040C055DF4F1882C05BD04042
:101CD000CB55DF4F1882C55AD040C155DF4F18820F
:101CE000CF5AD040CC55DF4F1882C45AD040C2558D
:101CF000DF4F1882CE5AD040CD55DF4F1882C35ADD
:101D0000D040C355DF4F1882CD5AD040CE55DF4F5B
:101D10001882C25AD040C455DF4F1882CC5AD040E6
:101D2000CF55DF4F1882C15AD0402224C056DF4F12
:101D30001882C05AD0403324C156DF4F1882CF5981
:101D4000D0404424C256DF4F1882CE59D04055248B
:101D5000C356DF4F1882CD59D040772400E0662467
:101D6000C456DF4F1882CC59D040C556DF4F188279
:101D7000CB59D040C656DF4F1882CA59D04010E028
:101D80008824FF249924EE24BB24C756DF4F1882F1
:101D9000C959D040CC24C555DF4F1882CB5AD0400A
:101DA00021E0C655DF4F2883CA5AD0400C947421D5
:101DB000FE0171968E8D898B8F8D818388A18283A0
:101DC00089A18383FE0175968AA18D8B8BA1818366
:101DD0008CA182838DA18383C755DF4F1882C95A96
:101DE000D040C855DF4F1882C85AD040C955DF4F80
:101DF0001882C75AD040DD24AA24CF54DF4F18825E
:101E0000C15BD040CA55DF4F1882C65AD040C0557A
:101E1000DF4F1882C05BD040CB55DF4F1882C55AC8
:101E2000D040C155DF4F1882CF5AD040CC55DF4F3C
:101E30001882C45AD040C255DF4F1882CE5AD040C3
:101E4000CD55DF4F1882C35AD040C355DF4F18829B
:101E5000CD5AD040CE55DF4F1882C25AD040C4551B
:101E6000DF4F1882CC5AD040CF55DF4F1882C15A6D
:101E7000D0402224C056DF4F1882C05AD0403324AD
:101E8000C156DF4F1882CF59D0404424C256DF4F8D
:101E90001882CE59D0405524C356DF4F1882CD59F1
:101EA000D040772400E06624C456DF4F1882CC5916
:101EB000D040C556DF4F1882CB59D040C656DF4FB1
:101EC0001882CA59D04010E08824FF249924EE24B7
:101ED000BB24C756DF4F1882C959D040CC2431E00B
:101EE000C555DF4F3883CB5AD0400C942020C755BE
:101EF000DF4F1882C95AD040C855DF4F1882C85AE0
:101F0000D040C955DF4F1882C75AD040DD24AA24DB
:101F1000CF54DF4F1882C15BD040CA55DF4F1882C3
:101F2000C65AD040C055DF4F1882C05BD040CB5559
:101F3000DF4F1882C55AD040C155DF4F1882CF5AA3
:101F4000D040CC55DF4F1882C45AD040C255DF4F25
:101F50001882CE5AD040CD55DF4F1882C35AD04098
:101F6000C355DF4F1882CD5AD040CE55DF4F18826F
:101F7000C25AD040C455DF4F1882CC5AD040CF55FA
:101F8000DF4F1882C15AD0402224C056DF4F18823A
:101F9000C05AD0403324C156DF4F1882CF59D040A9
:101FA0004424C256DF4F1882CE59D0405524C35620
:101FB000DF4F1882CD59D040772400E06624C45604
:101FC000DF4F1882CC59D040C556DF4F1882CB590D
:101FD000D040C656DF4F1882CA59D04010E088243E
:101FE000FF249924EE24BB24C756DF4F1882C95919
:101FF000D040CC24C3940C941B20C755DF4F1882CB
:10200000C95AD040C855DF4F1882C85AD040C95568
:10201000DF4F1882C75AD040DD24AA24CF54DF4FA7
:102020001882C15BD040CA55DF4F1882C65AD040D3
:10203000C055DF4F1882C05BD040CB55DF4F1882B0
:10204000C55AD040C155DF4F1882CF5AD040CC5529
:10205000DF4F1882C45AD040C255DF4F1882CE5A83
:10206000D040CD55DF4F1882C35AD040C355DF4F03
:102070001882CD5AD040CE55DF4F1882C25AD04078
:10208000C455DF4F1882CC5AD040CF55DF4F18824D
:10209000C15AD0402224C056DF4F1882C05AD040C7
:1020A0003324C156DF4F1882CF59D0404424C25642
:1020B000DF4F1882CE59D0405524C356DF4F1882C7
:1020C000CD59D040772400E06624C456DF4F1882F3
:1020D000CC59D040C556DF4F1882CB59D040C65698
:1020E000DF4F1882CA59D04010E08824FF24992479
:1020F000EE24BB24C756DF4F1882C959D040CC24E8
:10210000C555DF4F1882CB5AD040C655DF4F1882D5
:10211000CA5AD0406E8D772767FD7095872F972F0D
:102120000E9407842BED3FE049E450E40E946B8558
:1021300020E030E044E353E40E946C836093350F69
:102140007093360F8093370F9093380F0C9446217D
:10215000C755DF4F1882C95AD040C855DF4F188283
:10216000C85AD040C955DF4F1882C75AD040DD2425
:10217000AA24CF54DF4F1882C15BD040CA55DF4F2D
:102180001882C65AD040C055DF4F1882C05BD0407D
:10219000CB55DF4F1882C55AD040C155DF4F18824A
:1021A000CF5AD040CC55DF4F1882C45AD040C255C8
:1021B000DF4F1882CE5AD040CD55DF4F1882C35A18
:1021C000D040C355DF4F1882CD5AD040CE55DF4F97
:1021D0001882C25AD040C455DF4F1882CC5AD04022
:1021E000CF55DF4F1882C15AD0402224C056DF4F4E
:1021F0001882C05AD0403324C156DF4F1882CF59BD
:10220000D0404424C256DF4F1882CE59D0405524C6
:10221000C356DF4F1882CD59D040772400E06624A2
:10222000C456DF4F1882CC59D040C556DF4F1882B4
:10223000CB59D040C656DF4F1882CA59D04010E063
:102240008824FF249924EE24E3940C941420C75589
:10225000DF4F1882C95AD040C855DF4F1882C85A7C
:10226000D040C955DF4F1882C75AD040DD24AA2478
:10227000CF54DF4F1882C15BD040CA55DF4F188260
:10228000C65AD040C055DF4F1882C05BD040CB55F6
:10229000DF4F1882C55AD040C155DF4F1882CF5A40
:1022A000D040CC55DF4F1882C45AD040C255DF4FC2
:1022B0001882CE5AD040CD55DF4F1882C35AD04035
:1022C000C355DF4F1882CD5AD040CE55DF4F18820C
:1022D000C25AD040C455DF4F1882CC5AD040CF5597
:1022E000DF4F1882C15AD0402224C056DF4F1882D7
:1022F000C05AD0403324C156DF4F1882CF59D04046
:102300004424C256DF4F1882CE59D0405524C356BC
:10231000DF4F1882CD59D040772400E06624C456A0
:10232000DF4F1882CC59D040C556DF4F1882CB59A9
:10233000D040C656DF4F1882CA59D04010E08824DA
:10234000FF24992493940C941320C755DF4F1882CF
:10235000C95AD040C855DF4F1882C85AD040C95515
:10236000DF4F1882C75AD040DD24AA24CF54DF4F54
:102370001882C15BD040CA55DF4F1882C65AD04080
:10238000C055DF4F1882C05BD040CB55DF4F18825D
:10239000C55AD040C155DF4F1882CF5AD040CC55D6
:1023A000DF4F1882C45AD040C255DF4F1882CE5A30
:1023B000D040CD55DF4F1882C35AD040C355DF4FB0
:1023C0001882CD5AD040CE55DF4F1882C25AD04025
:1023D000C455DF4F1882CC5AD040CF55DF4F1882FA
:1023E000C15AD0402224C056DF4F1882C05AD04074
:1023F0003324C156DF4F1882CF59D0404424C256EF
:10240000DF4F1882CE59D0405524C356DF4F188273
:10241000CD59D040772401E00C94FF1FC755DF4F02
:102420001882C95AD040C855DF4F1882C85AD040C8
:10243000C955DF4F1882C75AD040DD24AA24CF5493
:10244000DF4F1882C15BD040CA55DF4F1882C65A91
:10245000D040C055DF4F1882C05BD040CB55DF4F16
:102460001882C55AD040C155DF4F1882CF5AD0408C
:10247000CC55DF4F1882C45AD040C255DF4F188266
:10248000CE5AD040CD55DF4F1882C35AD040C355E5
:10249000DF4F1882CD5AD040CE55DF4F1882C25A36
:1024A000D040C455DF4F1882CC5AD040CF55DF4FB3
:1024B0001882C15AD0402224C056DF4F1882C05A19
:1024C000D0403324C156DF4F1882CF59D040442426
:1024D000C256DF4F1882CE59D0405524C356DF4F25
:1024E0001882CD59D040772473940C94FE1FC755A1
:1024F000DF4F1882C95AD040C855DF4F1882C85ADA
:10250000D040C955DF4F1882C75AD040DD24AA24D5
:10251000CF54DF4F1882C15BD040CA55DF4F1882BD
:10252000C65AD040C055DF4F1882C05BD040CB5553
:10253000DF4F1882C55AD040C155DF4F1882CF5A9D
:10254000D040CC55DF4F1882C45AD040C255DF4F1F
:102550001882CE5AD040CD55DF4F1882C35AD04092
:10256000C355DF4F1882CD5AD040CE55DF4F188269
:10257000C25AD040C455DF4F1882CC5AD040CF55F4
:10258000DF4F1882C15AD0402224C056DF4F188234
:10259000C05AD0403324C156DF4F1882CF59D040A3
:1025A0004424C256DF4F1882CE59D0405524C3561A
:1025B000DF4F1882CD59D040772400E06624C456FE
:1025C000DF4F1882CC59D040C556DF4F1882CB5907
:1025D000D040C656DF4F1882CA59D04010E0882438
:1025E000FF249924EE24BB24B3940C941520C755E2
:1025F000DF4F1882C95AD040C855DF4F1882C85AD9
:10260000D040C955DF4F1882C75AD040DD24AA24D4
:10261000A3940C943E20C755DF4F1882C95AD0406E
:10262000C855DF4F1882C85AD040C955DF4F1882AD
:10263000C75AD040DD24AA24CF54DF4F1882C15B93
:10264000D040CA55DF4F1882C65AD040C055DF4F20
:102650001882C05BD040CB55DF4F1882C55AD0409E
:10266000C155DF4F1882CF5AD040CC55DF4F18826A
:10267000C45AD040C255DF4F1882CE5AD040CD55F3
:10268000DF4F1882C35AD040C355DF4F1882CD5A4E
:10269000D040CE55DF4F1882C25AD040C455DF4FCC
:1026A0001882CC5AD040CF55DF4F1882C15AD04043
:1026B0002224C056DF4F1882C05AD0403324C1565E
:1026C000DF4F1882CF59D0404424C256DF4F1882C2
:1026D000CE59D0405524C356DF4F1882CD59D04033
:1026E000772400E06624C456DF4F1882CC59D040CE
:1026F000C556DF4F1882CB59D040C656DF4F1882DF
:10270000CA59D04010E08824FF249924EE24BB2429
:10271000C756DF4F1882C959D040CC24C555DF4F6A
:102720001882CB5AD040C655DF4F1882CA5AD040C3
:102730008E8D8093490F8F8D80934A0F88A180934F
:102740004B0F99A190934C0F9AA190934D0F46EE89
:102750005EE0CC54DF4F59834883C45BD040405384
:102760005040CE54DF4F59834883C25BD040282F5E
:1027700030E040E050E0C654DF4F288339834A837D
:102780005B83CA5BD0400C94E920C755DF4F1882A9
:10279000C95AD040C855DF4F1882C85AD040C955D1
:1027A000DF4F1882C75AD040DD24AA24CF54DF4F10
:1027B0001882C15BD040CA55DF4F1882C65AD0403C
:1027C000C055DF4F1882C05BD040CB55DF4F188219
:1027D000C55AD040C155DF4F1882CF5AD040CC5592
:1027E000DF4F1882C45AD040C255DF4F1882CE5AEC
:1027F000D040CD55DF4F1882C35AD040C355DF4F6C
:102800001882CD5AD040CE55DF4F1882C25AD040E0
:10281000C455DF4F1882CC5AD040CF55DF4F1882B5
:10282000C15AD0402224C056DF4F1882C05AD0402F
:102830003324C156DF4F1882CF59D0404424C256AA
:10284000DF4F1882CE59D0405524C356DF4F18822F
:10285000CD59D040772400E06624C456DF4F18825B
:10286000CC59D040C556DF4F1882CB59D040C65600
:10287000DF4F1882CA59D04011E00C941020C75580
:10288000DF4F1882C95AD040C855DF4F1882C85A46
:10289000D040C955DF4F1882C75AD040DD24AA2442
:1028A000CF54DF4F1882C15BD040CA55DF4F18822A
:1028B000C65AD040C055DF4F1882C05BD040CB55C0
:1028C000DF4F1882C55AD040C155DF4F1882CF5A0A
:1028D000D040CC55DF4F1882C45AD040C255DF4F8C
:1028E0001882CE5AD040CD55DF4F1882C35AD040FF
:1028F000C355DF4F1882CD5AD040CE55DF4F1882D6
:10290000C25AD040C455DF4F1882CC5AD040CF5560
:10291000DF4F1882C15AD0402224C056DF4F1882A0
:10292000C05AD0403324C156DF4F1882CF59D0400F
:102930004424C256DF4F1882CE59D0405524C35686
:10294000DF4F1882CD59D040772400E06624C4566A
:10295000DF4F1882CC59D040C556DF4F1882CB5973
:10296000D040C656DF4F1882CA59D04010E08824A4
:10297000FF249924EE24BB24C756DF4F1882C9597F
:10298000D040CC24C555DF4F1882CB5AD040C65515
:10299000DF4F1882CA5AD0408E8D8093450F8F8D9D
:1029A0008093460F88A18093470F1092480F0C9494
:1029B0004621C755DF4F1882C95AD040C855DF4F4E
:1029C0001882C85AD040C955DF4F1882C75AD04024
:1029D000DD24AA24CF54DF4F1882C15BD040CA55F2
:1029E000DF4F1882C65AD040C055DF4F1882C05BF7
:1029F000D040CB55DF4F1882C55AD040C155DF4F6C
:102A00001882CF5AD040CC55DF4F1882C45AD040DC
:102A1000C255DF4F1882CE5AD040CD55DF4F1882B5
:102A2000C35AD040C355DF4F1882CD5AD040CE553F
:102A3000DF4F1882C25AD040C455DF4F1882CC5A9B
:102A4000D040CF55DF4F1882C15AD0402224C05603
:102A5000DF4F1882C05AD0403324C156DF4F18824E
:102A6000CF59D0404424C256DF4F1882CE59D040AF
:102A70005524C356DF4F1882CD59D040772400E04B
:102A80006624C456DF4F1882CC59D040C556DF4F5C
:102A90001882CB59D04031E0C656DF4F3883CA592F
:102AA000D0400C940F20C755DF4F1882C95AD04030
:102AB000C855DF4F1882C85AD040C955DF4F188219
:102AC000C75AD040DD24AA24CF54DF4F1882C15BFF
:102AD000D040CA55DF4F1882C65AD040C055DF4F8C
:102AE0001882C05BD040CB55DF4F1882C55AD0400A
:102AF000C155DF4F1882CF5AD040CC55DF4F1882D6
:102B0000C45AD040C255DF4F1882CE5AD040CD555E
:102B1000DF4F1882C35AD040C355DF4F1882CD5AB9
:102B2000D040CE55DF4F1882C25AD040C455DF4F37
:102B30001882CC5AD040CF55DF4F1882C15AD040AE
:102B40002224C056DF4F1882C05AD0403324C156C9
:102B5000DF4F1882CF59D0404424C256DF4F18822D
:102B6000CE59D0405524C356DF4F1882CD59D0409E
:102B7000772400E06624C456DF4F1882CC59D04039
:102B8000C556DF4F1882CB59D040C656DF4F18824A
:102B9000CA59D04010E08824FF249924EE24BB2495
:102BA000C756DF4F1882C959D040CC24C555DF4FD6
:102BB0001882CB5AD040C655DF4F1882CA5AD0402F
:102BC0000E947C7180E090E0A1E0B0E08093E30897
:102BD0009093E408A093E508B093E6081092DF080C
:102BE0001092E0081092E1081092E20881E08093D0
:102BF000E708FE01E75AFF4FCE0187569F4F0C941E
:102C00004420C755DF4F1882C95AD040C855DF4FFE
:102C10001882C85AD040C955DF4F1882C75AD040D1
:102C2000DD24AA24CF54DF4F1882C15BD040CA559F
:102C3000DF4F1882C65AD040C055DF4F1882C05BA4
:102C4000D040CB55DF4F1882C55AD040C155DF4F19
:102C50001882CF5AD040CC55DF4F1882C45AD0408A
:102C6000C255DF4F1882CE5AD040CD55DF4F188263
:102C7000C35AD040C355DF4F1882CD5AD040CE55ED
:102C8000DF4F1882C25AD040C455DF4F1882CC5A49
:102C9000D040CF55DF4F1882C15AD0402224C056B1
:102CA000DF4F1882C05AD0403324C156DF4F1882FC
:102CB000CF59D0404424C256DF4F1882CE59D0405D
:102CC0005524C356DF4F1882CD59D040772400E0F9
:102CD0006624C456DF4F1882CC59D04041E0C55617
:102CE000DF4F4883CB59D0400C940A20C755DF4FA3
:102CF0001882C95AD040C855DF4F1882C85AD040F0
:102D0000C955DF4F1882C75AD040DD24AA24CF54BA
:102D1000DF4F1882C15BD040CA55DF4F1882C65AB8
:102D2000D040C055DF4F1882C05BD040CB55DF4F3D
:102D30001882C55AD040C155DF4F1882CF5AD040B3
:102D4000CC55DF4F1882C45AD040C255DF4F18828D
:102D5000CE5AD040CD55DF4F1882C35AD040C3550C
:102D6000DF4F1882CD5AD040CE55DF4F1882C25A5D
:102D7000D040C455DF4F1882CC5AD040CF55DF4FDA
:102D80001882C15AD0402224C056DF4F1882C05A40
:102D9000D0403324C156DF4F1882CF59D04044244D
:102DA000C256DF4F1882CE59D0405524C356DF4F4C
:102DB0001882CD59D040772400E06624C456DF4FF6
:102DC0001882CC59D040C556DF4F1882CB59D0401D
:102DD000C656DF4F1882CA59D04010E08824FF241D
:102DE0009924EE24BB24C756DF4F1882C959D0401E
:102DF000CC24C555DF4F1882CB5AD040C655DF4F83
:102E00001882CA5AD0408E8D8093AF0E8F8D8093DA
:102E1000B00E88A18093B10E89A18093B20E8AA1D1
:102E20008093B30E8BA180939C118CA180939D11F4
:102E30008DA180939E110C944621C755DF4F1882B7
:102E4000C95AD040C855DF4F1882C85AD040C9551A
:102E5000DF4F1882C75AD040DD24AA24CF54DF4F59
:102E60001882C15BD040CA55DF4F1882C65AD04085
:102E7000C055DF4F1882C05BD040CB55DF4F188262
:102E8000C55AD040C155DF4F1882CF5AD040CC55DB
:102E9000DF4F1882C45AD040C255DF4F1882CE5A35
:102EA000D040CD55DF4F1882C35AD040C355DF4FB5
:102EB0001882CD5AD040CE55DF4F1882C25AD0402A
:102EC000C455DF4F1882CC5AD040CF55DF4F1882FF
:102ED000C15AD0402224C056DF4F1882C05AD04079
:102EE0003324C156DF4F1882CF59D0404424C256F4
:102EF000DF4F1882CE59D0405524C356DF4F188279
:102F0000CD59D040772400E06624C456DF4F1882A4
:102F1000CC59D040C556DF4F1882CB59D040C65649
:102F2000DF4F1882CA59D04010E08824FF2499242A
:102F3000EE24BB2451E0C756DF4F5883C959D04017
:102F40000C941A20C755DF4F1882C95AD040E0E0D0
:102F500014C0C755DF4F1882C95AD040E1E00DC0F8
:102F6000C755DF4F1882C95AD040E2E006C0C755A6
:102F7000DF4F1882C95AD040E3E0C855DF4F1882AE
:102F8000C85AD040C955DF4F1882C75AD040DD24F7
:102F9000AA24CF54DF4F1882C15BD040CA55DF4FFF
:102FA0001882C65AD040C055DF4F1882C05BD0404F
:102FB000CB55DF4F1882C55AD040C155DF4F18821C
:102FC000CF5AD040CC55DF4F1882C45AD040C2559A
:102FD000DF4F1882CE5AD040CD55DF4F1882C35AEA
:102FE000D040C355DF4F1882CD5AD040CE55DF4F69
:102FF0001882C25AD040C455DF4F1882CC5AD040F4
:10300000CF55DF4F1882C15AD0402224C056DF4F1F
:103010001882C05AD0403324C156DF4F1882CF598E
:10302000D0404424C256DF4F1882CE59D040552498
:10303000C356DF4F1882CD59D040772400E0662474
:10304000C456DF4F1882CC59D040C556DF4F188286
:10305000CB59D040C656DF4F1882CA59D04010E035
:103060008824FF249924EE24BB24C756DF4F1882FE
:10307000C959D040CC24C555DF4F1882CB5AD04017
:10308000C655DF4F1882CA5AD040DE015E96F0E086
:10309000EA59F04F9E012A5A3F4FBF010C94D720A6
:1030A000C755DF4F1882C95AD040C855DF4F188224
:1030B000C85AD04060E8C955DF4F6883C75AD0402E
:1030C00011C0C755DF4F1882C95AD04071E0C855AA
:1030D000DF4F7883C85AD04081E8C955DF4F8883D5
:1030E000C75AD040DD24D394C8C7C755DF4F1882D4
:1030F000C95AD04092E0C855DF4F9883C85AD04093
:10310000E2E8C955DF4FE883C75AD040EBCFC75537
:10311000DF4F1882C95AD040F3E0C855DF4FF8831B
:10312000C85AD04023E8C955DF4F2883C75AD0403A
:10313000D9CFC755DF4F1882C95AD040C855DF4F85
:103140001882C85AD040C955DF4F1882C75AD0409C
:10315000DD24AA24CF54DF4F1882C15BD040CA556A
:10316000DF4F1882C65AD040C055DF4F1882C05B6F
:10317000D040CB55DF4F1882C55AD040C155DF4FE4
:103180001882CF5AD040CC55DF4F1882C45AD04055
:10319000C255DF4F1882CE5AD040CD55DF4F18822E
:1031A000C35AD040C355DF4F1882CD5AD040CE55B8
:1031B000DF4F1882C25AD040C455DF4F1882CC5A14
:1031C000D040CF55DF4F1882C15AD0402224C0567C
:1031D000DF4F1882C05AD0403324C156DF4F1882C7
:1031E000CF59D0404424C256DF4F1882CE59D04028
:1031F0005524C356DF4F1882CD59D040772400E0C4
:103200006624C456DF4F1882CC59D040C556DF4FD4
:103210001882CB59D040C656DF4F1882CA59D040C9
:1032200010E08824FF24F394FDC6C755DF4F1882B1
:10323000C95AD040C855DF4F1882C85AD040C95526
:10324000DF4F1882C75AD040DD24AA24CF54DF4F65
:103250001882C15BD040CA55DF4F1882C65AD04091
:10326000C055DF4F1882C05BD040CB55DF4F18826E
:10327000C55AD040C155DF4F1882CF5AD040CC55E7
:10328000DF4F1882C45AD040C255DF4F1882CE5A41
:10329000D040CD55DF4F1882C35AD040C355DF4FC1
:1032A0001882CD5AD040CE55DF4F1882C25AD04036
:1032B000C455DF4F1882CC5AD040CF55DF4F18820B
:1032C000C15AD0402224C056DF4F1882C05AD04085
:1032D0003324C156DF4F1882CF59D0404424C25600
:1032E000DF4F1882CE59D0405524C356DF4F188285
:1032F000CD59D040772400E06624C456DF4F1882B1
:10330000CC59D040C556DF4F1882CB59D040C65655
:10331000DF4F1882CA59D04010E08824839481C6B8
:10332000C755DF4F1882C95AD040C855DF4F1882A1
:10333000C85AD040C955DF4F1882C75AD040DD2443
:10334000AA24CF54DF4F1882C15BD040CA55DF4F4B
:103350001882C65AD040C055DF4F1882C05BD0409B
:10336000CB55DF4F1882C55AD040C155DF4F188268
:10337000CF5AD040CC55DF4F1882C45AD040C255E6
:10338000DF4F1882CE5AD040CD55DF4F1882C35A36
:10339000D040C355DF4F1882CD5AD040CE55DF4FB5
:1033A0001882C25AD040C455DF4F1882CC5AD04040
:1033B000CF55DF4F1882C15AD0402224C056DF4F6C
:1033C0001882C05AD0403324C156DF4F1882CF59DB
:1033D000D0404424C256DF4F1882CE59D0405524E5
:1033E00031E0C356DF4F3883CD59D04006C6C755AC
:1033F000DF4F1882C95AD040C855DF4F1882C85ACB
:10340000D040C955DF4F1882C75AD040DD24AA24C6
:10341000CF54DF4F1882C15BD040CA55DF4F1882AE
:10342000C65AD040C055DF4F1882C05BD040CB5544
:10343000DF4F1882C55AD040C155DF4F1882CF5A8E
:10344000D040CC55DF4F1882C45AD040C255DF4F10
:103450001882CE5AD040CD55DF4F1882C35AD04083
:10346000C355DF4F1882CD5AD040CE55DF4F18825A
:10347000C25AD040C455DF4F1882CC5AD040CF55E5
:10348000DF4F1882C15AD0402224C056DF4F188225
:10349000C05AD0403324C156DF4F1882CF59D04094
:1034A0004424C256DF4F1882CE59D040552453943D
:1034B0009FC5C755DF4F1882C95AD040C855DF4F46
:1034C0001882C85AD040C955DF4F1882C75AD04019
:1034D000DD24AA24CF54DF4F1882C15BD040CA55E7
:1034E000DF4F1882C65AD040C055DF4F1882C05BEC
:1034F000D040CB55DF4F1882C55AD040C155DF4F61
:103500001882CF5AD040CC55DF4F1882C45AD040D1
:10351000C255DF4F1882CE5AD040CD55DF4F1882AA
:10352000C35AD040C355DF4F1882CD5AD040CE5534
:10353000DF4F1882C25AD040C455DF4F1882CC5A90
:10354000D040CF55DF4F1882C15AD0402224C056F8
:10355000DF4F1882C05AD0403324C156DF4F188243
:10356000CF59D0404424C256DF4F1882CE59D040A4
:103570005524C356DF4F1882CD59D040772400E040
:10358000662441E0C456DF4F4883CC59D0403DC546
:10359000C755DF4F1882C95AD040C855DF4F18822F
:1035A000C85AD040C955DF4F1882C75AD040DD24D1
:1035B000AA24CF54DF4F1882C15BD040CA55DF4FD9
:1035C0001882C65AD040C055DF4F1882C05BD04029
:1035D000CB55DF4F1882C55AD040C155DF4F1882F6
:1035E000CF5AD040CC55DF4F1882C45AD040C25574
:1035F000DF4F1882CE5AD040CD55DF4F1882C35AC4
:10360000D040C355DF4F1882CD5AD040CE55DF4F42
:103610001882C25AD040C455DF4F1882CC5AD040CD
:10362000CF55DF4F1882C15AD0402224C056DF4FF9
:103630001882C05AD0403324C156DF4F1882CF5968
:10364000D0404424C256DF4F1882CE59D040552472
:10365000C356DF4F1882CD59D040772400E066244E
:103660006394CEC4C755DF4F1882C95AD040C8559D
:10367000DF4F1882C85AD040C955DF4F1882C75A49
:10368000D040DD24AA24CF54DF4F1882C15BD04044
:10369000CA55DF4F1882C65AD040C055DF4F188236
:1036A000C05BD040CB55DF4F1882C55AD040C155C2
:1036B000DF4F1882CF5AD040CC55DF4F1882C45A02
:1036C000D040C255DF4F1882CE5AD040CD55DF4F83
:1036D0001882C35AD040C355DF4F1882CD5AD0400C
:1036E000CE55DF4F1882C25AD040C455DF4F1882E2
:1036F000CC5AD040CF55DF4F1882C15AD040222437
:10370000C056DF4F1882C05AD0403324C156DF4F15
:103710001882CF59D040442451E0C256DF4F58831D
:10372000CE59D04064C4C755DF4F1882C95AD04023
:10373000C855DF4F1882C85AD040C955DF4F18828C
:10374000C75AD040DD24AA24CF54DF4F1882C15B72
:10375000D040CA55DF4F1882C65AD040C055DF4FFF
:103760001882C05BD040CB55DF4F1882C55AD0407D
:10377000C155DF4F1882CF5AD040CC55DF4F188249
:10378000C45AD040C255DF4F1882CE5AD040CD55D2
:10379000DF4F1882C35AD040C355DF4F1882CD5A2D
:1037A000D040CE55DF4F1882C25AD040C455DF4FAB
:1037B0001882CC5AD040CF55DF4F1882C15AD04022
:1037C0002224C056DF4F1882C05AD0403324C1563D
:1037D000DF4F1882CF59D0404424439403C4C755C7
:1037E000DF4F1882C95AD040C855DF4F1882C85AD7
:1037F000D040C955DF4F1882C75AD040DD24AA24D3
:10380000CF54DF4F1882C15BD040CA55DF4F1882BA
:10381000C65AD040C055DF4F1882C05BD040CB5550
:10382000DF4F1882C55AD040C155DF4F1882CF5A9A
:10383000D040CC55DF4F1882C45AD040C255DF4F1C
:103840001882CE5AD040CD55DF4F1882C35AD0408F
:10385000C355DF4F1882CD5AD040CE55DF4F188266
:10386000C25AD040C455DF4F1882CC5AD040CF55F1
:10387000DF4F1882C15AD0402224C056DF4F188231
:10388000C05AD040332461E0C156DF4F6883CF591E
:10389000D040A7C3C755DF4F1882C95AD040C8557A
:1038A000DF4F1882C85AD040C955DF4F1882C75A17
:1038B000D040DD24AA24CF54DF4F1882C15BD04012
:1038C000CA55DF4F1882C65AD040C055DF4F188204
:1038D000C05BD040CB55DF4F1882C55AD040C15590
:1038E000DF4F1882CF5AD040CC55DF4F1882C45AD0
:1038F000D040C255DF4F1882CE5AD040CD55DF4F51
:103900001882C35AD040C355DF4F1882CD5AD040D9
:10391000CE55DF4F1882C25AD040C455DF4F1882AF
:10392000CC5AD040CF55DF4F1882C15AD040222404
:10393000C056DF4F1882C05AD040332433944CC352
:10394000C755DF4F1882C95AD040C855DF4F18827B
:10395000C85AD040C955DF4F1882C75AD040DD241D
:10396000AA24CF54DF4F1882C15BD040CA55DF4F25
:103970001882C65AD040C055DF4F1882C05BD04075
:10398000CB55DF4F1882C55AD040C155DF4F188242
:10399000CF5AD040CC55DF4F1882C45AD040C255C0
:1039A000DF4F1882CE5AD040CD55DF4F1882C35A10
:1039B000D040C355DF4F1882CD5AD040CE55DF4F8F
:1039C0001882C25AD040C455DF4F1882CC5AD0401A
:1039D000CF55DF4F1882C15AD040222471E0C05623
:1039E000DF4F7883C05AD040F6C2C755DF4F1882E8
:1039F000C95AD040C855DF4F1882C85AD040C9555F
:103A0000DF4F1882C75AD040DD24AA24CF54DF4F9D
:103A10001882C15BD040CA55DF4F1882C65AD040C9
:103A2000C055DF4F1882C05BD040CB55DF4F1882A6
:103A3000C55AD040C155DF4F1882CF5AD040CC551F
:103A4000DF4F1882C45AD040C255DF4F1882CE5A79
:103A5000D040CD55DF4F1882C35AD040C355DF4FF9
:103A60001882CD5AD040CE55DF4F1882C25AD0406E
:103A7000C455DF4F1882CC5AD040CF55DF4F188243
:103A8000C15AD04022242394A1C2C755DF4F1882C7
:103A9000C95AD040C855DF4F1882C85AD040C955BE
:103AA000DF4F1882C75AD040DD24AA24CF54DF4FFD
:103AB0001882C15BD040CA55DF4F1882C65AD04029
:103AC000C055DF4F1882C05BD040CB55DF4F188206
:103AD000C55AD040C155DF4F1882CF5AD040CC557F
:103AE000DF4F1882C45AD040C255DF4F1882CE5AD9
:103AF000D040CD55DF4F1882C35AD040C355DF4F59
:103B00001882CD5AD040CE55DF4F1882C25AD040CD
:103B1000C455DF4F1882CC5AD04081E0CF55DF4FDB
:103B20008883C15AD04051C2C755DF4F1882C95A45
:103B3000D040C855DF4F1882C85AD040C955DF4F12
:103B40001882C75AD040DD24AA24CF54DF4F1882F0
:103B5000C15BD040CA55DF4F1882C65AD040C0550D
:103B6000DF4F1882C05BD040CB55DF4F1882C55A5B
:103B7000D040C155DF4F1882CF5AD040CC55DF4FCF
:103B80001882C45AD040C255DF4F1882CE5AD04056
:103B9000CD55DF4F1882C35AD040C355DF4F18822E
:103BA000CD5AD040CE55DF4F1882C25AD04091E056
:103BB000C455DF4F9883CC5AD04002C2C755DF4F5F
:103BC0001882C95AD040C855DF4F1882C85AD04011
:103BD000C955DF4F1882C75AD040DD24AA24CF54DC
:103BE000DF4F1882C15BD040CA55DF4F1882C65ADA
:103BF000D040C055DF4F1882C05BD040CB55DF4F5F
:103C00001882C55AD040C155DF4F1882CF5AD040D4
:103C1000CC55DF4F1882C45AD040C255DF4F1882AE
:103C2000CE5AD040CD55DF4F1882C35AD040C3552D
:103C3000DF4F1882CD5AD040E1E0CE55DF4FE88308
:103C4000C25AD040B8C1C755DF4F1882C95AD040B8
:103C5000C855DF4F1882C85AD040C955DF4F188267
:103C6000C75AD040DD24AA24CF54DF4F1882C15B4D
:103C7000D040CA55DF4F1882C65AD040C055DF4FDA
:103C80001882C05BD040CB55DF4F1882C55AD04058
:103C9000C155DF4F1882CF5AD040CC55DF4F188224
:103CA000C45AD040C255DF4F1882CE5AD040CD55AD
:103CB000DF4F1882C35AD040F1E0C355DF4FF8837D
:103CC000CD5AD04073C1C755DF4F1882C95AD04072
:103CD000C855DF4F1882C85AD040C955DF4F1882E7
:103CE000C75AD040DD24AA24CF54DF4F1882C15BCD
:103CF000D040CA55DF4F1882C65AD040C055DF4F5A
:103D00001882C05BD040CB55DF4F1882C55AD040D7
:103D1000C155DF4F1882CF5AD040CC55DF4F1882A3
:103D2000C45AD040C255DF4F1882CE5AD04021E04D
:103D3000CD55DF4F2883C35AD04033C1C755DF4F1D
:103D40001882C95AD040C855DF4F1882C85AD0408F
:103D5000C955DF4F1882C75AD040DD24AA24CF545A
:103D6000DF4F1882C15BD040CA55DF4F1882C65A58
:103D7000D040C055DF4F1882C05BD040CB55DF4FDD
:103D80001882C55AD040C155DF4F1882CF5AD04053
:103D9000CC55DF4F1882C45AD04031E0C255DF4FB6
:103DA0003883CE5AD040F8C0C755DF4F1882C95A61
:103DB000D040C855DF4F1882C85AD040C955DF4F90
:103DC0001882C75AD040DD24AA24CF54DF4F18826E
:103DD000C15BD040CA55DF4F1882C65AD040C0558B
:103DE000DF4F1882C05BD040CB55DF4F1882C55AD9
:103DF000D040C155DF4F1882CF5AD04041E0CC555A
:103E0000DF4F4883C45AD040C2C0C755DF4F188225
:103E1000C95AD040C855DF4F1882C85AD040C9553A
:103E2000DF4F1882C75AD040DD24AA24CF54DF4F79
:103E30001882C15BD040CA55DF4F1882C65AD040A5
:103E4000C055DF4F1882C05BD040CB55DF4F188282
:103E5000C55AD04051E0C155DF4F5883CF5AD040AA
:103E600091C0C755DF4F1882C95AD040C855DF4F9F
:103E70001882C85AD040C955DF4F1882C75AD0405F
:103E8000DD24AA24CF54DF4F1882C15BD040CA552D
:103E9000DF4F1882C65AD040C055DF4F1882C05B32
:103EA000D04061E0CB55DF4F6883C55AD04065C034
:103EB000C755DF4F1882C95AD040C855DF4F188206
:103EC000C85AD040C955DF4F1882C75AD040DD24A8
:103ED000AA24CF54DF4F1882C15BD040CA55DF4FB0
:103EE0001882C65AD04071E0C055DF4F7883C05B5E
:103EF000D0403EC0C755DF4F1882C95AD040C85580
:103F0000DF4F1882C85AD040C955DF4F1882C75AB0
:103F1000D040DD24AA24CF54DF4F1882C15BD040AB
:103F200081E0CA55DF4F8883C65AD0401CC0C755B0
:103F3000DF4F1882C95AD040C855DF4F1882C85A7F
:103F4000D040C955DF4F1882C75AD040DD24AA247B
:103F500091E0CF54DF4F9883C15BD040CA55DF4F0B
:103F60001882C65AD040C055DF4F1882C05BD0407F
:103F7000CB55DF4F1882C55AD040C155DF4F18824C
:103F8000CF5AD040CC55DF4F1882C45AD040C255CA
:103F9000DF4F1882CE5AD040CD55DF4F1882C35A1A
:103FA000D040C355DF4F1882CD5AD040CE55DF4F99
:103FB0001882C25AD040C455DF4F1882CC5AD04024
:103FC000CF55DF4F1882C15AD0402224C056DF4F50
:103FD0001882C05AD0403324C156DF4F1882CF59BF
:103FE000D0404424C256DF4F1882CE59D0405524C9
:103FF000C356DF4F1882CD59D040772400E06624A5
:10400000C456DF4F1882CC59D040C556DF4F1882B6
:10401000CB59D040C656DF4F1882CA59D04010E065
:104020008824FF249924EE24BB24C756DF4F18822E
:10403000C959D040CC24C555DF4F1882CB5AD04047
:10404000C655DF4F1882CA5AD0404EC1C755DF4F00
:104050001882C95AD04006C0E1E0C755DF4FE88357
:10406000C95AD040C855DF4F1882C85AD040C955E8
:10407000DF4F1882C75AD040DD24AA24CF54DF4F27
:104080001882C15BD0406ACF1192E817F907E1F7B7
:104090008FEF9FEFA0E0B0E08093F2089093F308D9
:1040A000A093F408B093F50881E08093C205109ABC
:1040B000119A129A139A80E090E0A1E0B0E08D830B
:1040C0009E83AF83B887CE54DF4FC882C25BD04097
:1040D000CC54DF4FB882C45BD040CA54DF4FE88273
:1040E000C65BD040C854DF4F9882C85BD0409F2C3D
:1040F000B12EC02E27C0CE01875A9F4FB801A7010D
:1041000020E430E00E94A43C8091F2089091F308F2
:10411000A091F408B091F508805C9F4FAF4FBF4F5E
:104120008093F2089093F308A093F408B093F508F5
:10413000D801C701805C9F4FAF4FBF4F8D839E83D7
:10414000AF83B887ED80FE800F811885F0E0EF1611
:10415000F0E0FF06F0E20F07F0E01F0760F2CA543C
:10416000DF4FE880C65BD040F92CC854DF4F988001
:10417000C85BD0401B2DCC54DF4FB880C45BD0400F
:104180000C2DCE54DF4FC880C25BD04010981198E0
:10419000129813981092C2051092F2081092F30828
:1041A0001092F4081092F5080E947E719DC08C91C7
:1041B000FB018083CB0180589F4F11964C91119742
:1041C000FC01408312966C5F7F4FA217B30779F70B
:1041D0005DC0CC54DF4FE881F981C45BD0402191B0
:1041E0003191CC54DF4FF983E883C45BD040CA548B
:1041F000DF4F39832883C65BD040CE54DF4FE88140
:10420000F981C25BD04000A0F1A1E02DC854DF4F7E
:10421000F983E883C85BD040B9016E1B7F0B80E057
:1042200090E0C654DF4F288139814A815B81CA5BA7
:10423000D0400E945F8624E630E040E050E00E94DB
:10424000A586C854DF4F88819981C85BD040821B06
:10425000930BCE54DF4FE881F981C25BD04081934C
:104260009193CE54DF4FF983E883C25BD040CA54A8
:10427000DF4F48815981C65BD040240F351F3787F7
:1042800026875EE0E63CF50709F0A3CF0E943306DF
:104290002BC00E948A730E943D7301C080E0DE0142
:1042A0009096F501E170F07095E0EE0FFF1F9A9582
:1042B000E1F7EE5BFD4E9E01205C3F4F9D91919397
:1042C000A217B307D9F7A0FE05C0C501969587953B
:1042D0000E94487212981092C20590E59CBD91E030
:1042E0009093E9000C94062ACC2009F442C03F8D3B
:1042F00020E08E8DB901680F711D70933F0B6093A4
:104300003E0B39A120E088A1F901E80FF11DF093DF
:10431000410BE093400B3BA120E08AA1A901480F8B
:10432000511D5093430B4093420B3DA120E08CA1C3
:10433000B901680F711D7093450B6093440B3FA149
:1043400020E08EA1F901E80FF11DF093470BE093F7
:10435000460B39A520E088A5A901480F511D5093AF
:10436000490B4093480B0E94AD7F0E94D90B0E94DD
:10437000AD7FBB2009F49FC0FE017E96A6EDBEE096
:104380009E01225D3F4F80818C93818111968C9399
:104390001197808990968C939097818991968C93B0
:1043A000919780A150968C93509781A151968C93B0
:1043B000519732961296E217F30729F780914B0F27
:1043C000282F30E040E050E0C654DF4F2883398387
:1043D0004A835B83CA5BD04046EE5EE0CC54DF4F3D
:1043E00059834883C45BD04040535040CE54DF4F84
:1043F00059834883C25BD040CC54DF4FE881F981B8
:10440000C45BD04021913191CC54DF4FF983E883D4
:10441000C45BD040CA54DF4F39832883C65BD04089
:10442000CE54DF4FE881F981C25BD04000A0F1A1FA
:10443000E02DC854DF4FF983E883C85BD040B90151
:104440006E1B7F0B80E090E0C654DF4F28813981DE
:104450004A815B81CA5BD0400E945F8624E630E0DF
:1044600040E050E00E94A586C854DF4F88819981C2
:10447000C85BD040821B930BCE54DF4FE881F9819B
:10448000C25BD04081939193CE54DF4FF983E88390
:10449000C25BD040CA54DF4F48815981C65BD040CF
:1044A000240F351F378726875EE0E63CF50709F0C5
:1044B000A3CF0E943306AA2009F4E0C38E8D8D831A
:1044C0008F8D8E8388A18F8389A188878AA1898710
:1044D0008BA18A878CA18B878DA18C872D813E81B2
:1044E0004F815885DA01C90180709070A07FBF7339
:1044F000E4E1B695A79597958795EA95D1F786500B
:104500009F4FAF4FBF4F880F991F880F991F9093F0
:104510006E1080936D10DA01C90180709C7FAF70BE
:10452000B0706AE0B695A795979587956A95D1F78B
:1045300086509F4FAF4FBF4F880F991F880F991F0D
:104540009093701080936F10DA01C9019370A0707E
:10455000B07086509F4FAF4FBF4F880F991F880F85
:10456000991F909372108093711029853A854B851D
:104570005C85DA01C90180709070A07FBF73E4E1AF
:10458000B695A79597958795EA95D1F786509F4F51
:10459000AF4FBF4F880F991F880F991F90937410CA
:1045A00080937310DA01C90180709C7FAF70B07086
:1045B0006AE0B695A795979587956A95D1F7865045
:1045C0009F4FAF4FBF4F880F991F880F991F909330
:1045D000761080937510DA01C9019370A070B070E5
:1045E00086509F4FAF4FBF4F880F991F880F991F5D
:1045F00090937810809377108EA18D838FA18E83F6
:1046000088A58F8389A588878AA589878BA58A87AE
:104610008CA58B878DA58C872D813E814F815885F8
:10462000DA01C90180709070A07FBF73E4E1B69594
:10463000A79597958795EA95D1F786509F4FAF4FED
:10464000BF4F880F991F880F991F90937A108093FE
:104650007910DA01C90180709C7FAF70B0706AE098
:10466000B695A795979587956A95D1F786509F4FF0
:10467000AF4FBF4F880F991F880F991F90937C10E1
:1046800080937B10DA01C9019370A070B0708650DE
:104690009F4FAF4FBF4F880F991F880F991F90935F
:1046A0007E1080937D1029853A854B855C85DA01E3
:1046B000C90180709070A07FBF73E4E1B695A795A3
:1046C00097958795EA95D1F786509F4FAF4FBF4F8B
:1046D000880F991F880F991F9093801080937F10E7
:1046E000DA01C90180709C7FAF70B0706AE0B69546
:1046F000A795979587956A95D1F786509F4FAF4FAD
:10470000BF4F880F991F880F991F90938210809335
:104710008110DA01C9019370A070B07086509F4F6C
:10472000AF4FBF4F880F991F880F991F9093841028
:10473000809383108EA58D838FA58E8388A98F8308
:1047400089A988878AA989878BA98A878CA98B8759
:104750008DA98C872D813E814F815885DA01C90151
:1047600080709070A07FBF73E4E1B695A795979590
:104770008795EA95D1F786509F4FAF4FBF4F880F6F
:10478000991F880F991F9093861080938510DA01E6
:10479000C90180709C7FAF70B0706AE0B695A79534
:1047A000979587956A95D1F786509F4FAF4FBF4F2A
:1047B000880F991F880F991F9093881080938710F6
:1047C000DA01C9019370A070B07086509F4FAF4F4F
:1047D000BF4F880F991F880F991F90938A1080935D
:1047E000891029853A854B855C85DA01C90180707D
:1047F0009070A07FBF73E4E1B695A79597958795D4
:10480000EA95D1F786509F4FAF4FBF4F880F991F42
:10481000880F991F90938C1080938B10DA01C90137
:1048200080709C7FAF70B0706AE0B695A795979541
:1048300087956A95D1F786509F4FAF4FBF4F880F2E
:10484000991F880F991F90938E1080938D10DA0115
:10485000C9019370A070B07086509F4FAF4FBF4F8B
:10486000880F991F880F991F9093901080938F1035
:104870008EA98D838FA98E8388AD8F8389AD88871C
:104880008AAD89878BAD8A878CAD8B878DAD8C8700
:104890002D813E814F815885DA01C9018070907069
:1048A000A07FBF73E4E1B695A79597958795EA95A4
:1048B000D1F786509F4FAF4FBF4F880F991F880F7A
:1048C000991F9093921080939110DA01C901807022
:1048D0009C7FAF70B0706AE0B695A7959795879565
:1048E0006A95D1F786509F4FAF4FBF4F880F991FE2
:1048F000880F991F9093941080939310DA01C90147
:104900009370A070B07086509F4FAF4FBF4F880F0D
:10491000991F880F991F9093961080939510298561
:104920003A854B855C85DA01C90180709070A07F63
:10493000BF73E4E1B695A79597958795EA95D1F76A
:1049400086509F4FAF4FBF4F880F991F880F991FF9
:104950009093981080939710DA01C90180709C7F22
:10496000AF70B0706AE0B695A795979587956A95F0
:10497000D1F786509F4FAF4FBF4F880F991F880FB9
:10498000991F90939A1080939910DA01C90193703E
:10499000A070B07086509F4FAF4FBF4F880F991FC8
:1049A000880F991F90939C1080939B108EAD8D83E0
:1049B0008FAD8E83FE01E05CFF4F80818F83FE010F
:1049C000EF5BFF4F80818887FE01EE5BFF4F8081A8
:1049D0008987FE01ED5BFF4F80818A87FE01EC5BDA
:1049E000FF4F80818B87FE01EB5BFF4F80818C87BF
:1049F0002D813E814F815885DA01C9018070907008
:104A0000A07FBF73E4E1B695A79597958795EA9542
:104A1000D1F786509F4FAF4FBF4F880F991F880F18
:104A2000991F90939E1080939D10DA01C9018070A8
:104A30009C7FAF70B0706AE0B695A7959795879503
:104A40006A95D1F786509F4FAF4FBF4F880F991F80
:104A5000880F991F9093A01080939F10DA01C901CD
:104A60009370A070B07086509F4FAF4FBF4F880FAC
:104A7000991F880F991F9093A2108093A1102985E8
:104A80003A854B855C85DA01C90180709070A07F02
:104A9000BF73E4E1B695A79597958795EA95D1F709
:104AA00086509F4FAF4FBF4F880F991F880F991F98
:104AB0009093A4108093A310DA01C90180709C7FA9
:104AC000AF70B0706AE0B695A795979587956A958F
:104AD000D1F786509F4FAF4FBF4F880F991F880F58
:104AE000991F9093A6108093A510DA01C9019370C5
:104AF000A070B07086509F4FAF4FBF4F880F991F67
:104B0000880F991F9093A8108093A710FE01EA5B6D
:104B1000FF4F80818D83FE01E95BFF4F80818E8393
:104B2000FE01E85BFF4F80818F83FE01E75BFF4F53
:104B300080818887FE01E65BFF4F80818987FE01C7
:104B4000E55BFF4F80818A87FE01E45BFF4F808138
:104B50008B87FE01E35BFF4F80818C872D813E8137
:104B60004F815885DA01C90180709070A07FBF73B2
:104B7000E4E1B695A79597958795EA95D1F7865084
:104B80009F4FAF4FBF4F880F991F880F991F90936A
:104B9000AA108093A910DA01C90180709C7FAF70C0
:104BA000B0706AE0B695A795979587956A95D1F705
:104BB00086509F4FAF4FBF4F880F991F880F991F87
:104BC0009093AC108093AB10DA01C9019370A07080
:104BD000B07086509F4FAF4FBF4F880F991F880FFF
:104BE000991F9093AE108093AD1029853A854B851F
:104BF0005C85DA01C90180709070A07FBF73E4E129
:104C0000B695A79597958795EA95D1F786509F4FCA
:104C1000AF4FBF4F880F991F880F991F9093B01007
:104C20008093AF10DA01C90180709C7FAF70B070C3
:104C30006AE0B695A795979587956A95D1F78650BE
:104C40009F4FAF4FBF4F880F991F880F991F9093A9
:104C5000B2108093B110DA01C9019370A070B070E6
:104C600086509F4FAF4FBF4F880F991F880F991FD6
:104C70009093B4108093B3100E9433069920E1F111
:104C80008E8D8093130F8F8D8093140FE5E1FFE0DD
:104C900088A18093150F89A181838AA18093190F20
:104CA0008BA185838CA18093170F8DA183838EA107
:104CB00080931B0F8FA180931C0F88A580931D0FDD
:104CC0008AA580931E0F8BA582878EA58093200FC7
:104CD0008FA5848788A98093220F89A98093260FA6
:104CE0008AA9828B8BA98093240F8CA9808B8DA994
:104CF0008093230F0E943306882041F18E8D80938C
:104D00002C0F8F8D80932D0FEAE2FFE088A1809316
:104D10002A0F89A181838AA18093280F8BA1809378
:104D2000290F8CA180932E0F8DA180932F0F8EA120
:104D30008093300F8FA18093310F88A5808789A53C
:104D40008093330F8AA582870E943306772009F467
:104D500041C08E8D8093060F8F8D8093070F88A1A1
:104D60008093C31089A18093530F8AA18093080F69
:104D70008BA18093090F8CA180930A0F8DA1809342
:104D80000B0F8EA180930C0F8FA18093550F88A5D8
:104D900080936A1089A58093540F8AA580930D0F84
:104DA0008BA58093100F8CA580930E0F8DA58093FB
:104DB0000F0F8EA580934E0F8FA58093110F88A99A
:104DC0008093120F89A98093B5108AA98093B61099
:104DD0000E943306662009F494C08E8D80934F0F95
:104DE0008F8D8093510F88A18093500F89A180935C
:104DF000520F6AA170E080E090E00E9405842BEDE4
:104E00003FE049E450E40E946B8520E030E044E359
:104E100053E40E946C8360935E0F70935F0F8093E6
:104E2000600F9093610F6BA170E080E090E00E94B2
:104E300005842BED3FE049E450E40E946B8520E0BF
:104E400030E044E353E40E946C836093620F7093FC
:104E5000630F8093640F9093650F6CA1772767FDB4
:104E60007095872F972F0E9407842BED3FE049E430
:104E700050E40E946B8520E030E044E353E40E945C
:104E80006C836093560F7093570F8093580F9093D5
:104E9000590F6DA1772767FD7095872F972F0E9477
:104EA00007842BED3FE049E450E40E946B8520E04D
:104EB00030E044E353E40E946C8360935A0F709394
:104EC0005B0F80935C0F90935D0F8EA180934811D0
:104ED0008FA18093A01198A59093A11199A590936B
:104EE000A3119AA59093A2119BA59093A411882336
:104EF00031F00E9461800E94D90B0E9461800E9463
:104F00003306552099F18E8D809366108F8D809396
:104F1000671088A18093681069A170E080E090E03C
:104F20000E9405842DEC3CEC4CEC5DE30E946B850B
:104F300060934011709341118093421190934311FB
:104F40006AA170E080E090E00E9405842DEC3CECCA
:104F50004CEC5DE30E946B856093441170934511A6
:104F600080934611909347110E943306442071F0BC
:104F70008E8D8093C4108F8D8093C51088A18093EF
:104F8000C61089A18093C7100E943306332069F4AC
:104F90002AC0CD90C192A417B507D9F701962A5F10
:104FA0003F4F8630910569F41CC025E030E080E079
:104FB00090E0BE01675E7F4FEFE1AE2EB12CAC0EEC
:104FC000BD1EDB01A20FB31FFC01EE0FFF1FE80F98
:104FD000F91FEE0FFF1FE853FF4EA501420F531FAD
:104FE000D8CF0E943306222069F42AC0CD90C19206
:104FF000A417B507D9F701962A5F3F4F8630910570
:1050000069F41CC025E030E080E090E0BE01675EFE
:105010007F4FEFE1AE2EB12CAC0EBD1EDB01A20F17
:10502000B31FFC01EE0FFF1FE80FF91FEE0FFF1F6C
:10503000E451FF4EA501420F531FD8CF0E94330603
:10504000C455DF4F6881CC5AD040662369F42AC02A
:10505000CD90C192A417B507D9F701962A5F3F4FAB
:105060008630910569F41CC025E030E080E090E0D6
:10507000BE01675E7F4FEFE1AE2EB12CAC0EBD1EC0
:10508000DB01A20FB31FFC01EE0FFF1FE80FF91F9A
:10509000EE0FFF1FE05FFE4EA501420F531FD8CF5A
:1050A0000E943306C355DF4F7881CD5AD040772315
:1050B00031F1CE014996FE017E96AAE3B1E19E014F
:1050C0002C5D3F4F41914D93E217F307D9F7FE0155
:1050D000B496A4E3B1E19C012F5E3F4F41914D9303
:1050E000E217F307D9F7FE01BA96A5E5B1E14796B5
:1050F00021912D93E817F907D9F70E943306C2557D
:10510000DF4F8881CE5AD040882309F446C06E8D87
:10511000772767FD7095872F972F0E9407842BEDC7
:105120003FE049E450E40E946B8520E030E044E336
:1051300053E40E946C8360934D1170934E118093E1
:105140004F11909350116F8D772767FD7095872FC2
:10515000972F0E9407842BED3FE049E450E40E9422
:105160006B8520E030E044E353E40E946C8360935D
:10517000491170934A1180934B1190934C1188A15F
:105180008093511189A1809352118AA18093531168
:105190008BA1809354110E943306C155DF4F988133
:1051A000CF5AD040992349F18E8D80935B118F8D1A
:1051B00080935C1188A180935D1189A180935E1119
:1051C0008AA180935F118BA1809360118CA1809341
:1051D00061118DA1809362118EA1809363118FA1C3
:1051E0008093641188A58093651189A580936611C9
:1051F0008AA5809367110E943306C055DF4FE8816E
:10520000C05BD040EE2309F44DC08E8D80936811B1
:105210008F8D8093691188A180936A1159A1509351
:105220006B11FE0179968FEA9EE040E0BD2C31C003
:10523000DC01A954BD4F8480C154DF4F8882CF5B0D
:10524000D040C254DF4F1882CE5BD040D380C254CE
:10525000DF4F28813981CE5BD0402D0D311D2D933C
:105260003C93DC01A754BD4F368120E0D580B901C5
:105270006D0D711D6D937C93DC01A554BD4F708540
:1052800060E0D7804B018D0C911C11969C928E9200
:105290004F5F451720F436960696483049F6DB2CCA
:1052A0000E943306CF54DF4F9880C15BD0409920D5
:1052B00081F08E8D80939F11FE017F96A5EAB1E16A
:1052C000CE01879621912D93E817F907D9F70E940F
:1052D0003306C655DF4F2881CA5AD040222301F138
:1052E0000E947C718091E00081608093E0001098C2
:1052F000119812981398F8940E94AC0B7894109A15
:1053000085E59AEAAAEAB5E58093CE129093CF128A
:10531000A093D012B093D11285E00E945535FFCFF3
:10532000C555DF4F3881CB5AD040332309F47FC0B5
:105330000E947C7189899A89AB89BC898D879E87F7
:10534000AF87B88BCC24C39439E5832E912C8C0E77
:105350009D1E25E5522E9DE0A92EB12CAC0EBD1E42
:105360008CE3682E712C680C791C37C0C092E90060
:105370008091E80085FFFCCF6D857E858F859889BB
:105380002CE330E040E050E00E945F86AB01BC01BE
:10539000C4012CE330E00E94293A5092F100F5015B
:1053A00080818093F10081818093F10082818093DC
:1053B000F100F40181918093F100E615F705D1F732
:1053C0000E943F068D859E85AF85B8890196A11DF7
:1053D000B11D8D879E87AF87B88B2D893E894F89F8
:1053E000588D89899A89AB89BC89280F391F4A1F32
:1053F0005B1F8D859E85AF85B88982179307A407AB
:10540000B50708F4B3CF0E947E7111C09091E800F7
:1054100095FFFCCF9FE09093F1009B819093F1006A
:105420009C819093F1008093F1000E943F06EE2052
:1054300009F467C081E08093E9008091E80085FF6E
:10544000FCCF87E58093F1008091130F8093F100EA
:105450008091140F8093F1008091150F8093F100DB
:105460008091160F8093F1008091190F8093F100C5
:1054700080911A0F8093F1008091170F8093F100B3
:105480008091180F8093F10080911B0F8093F100A1
:1054900080911C0F8093F10080911D0F8093F1008B
:1054A0008FEF8093F10090911E0F9093F1009091F7
:1054B0001F0F9093F1008093F1008093F100809191
:1054C000200F8093F1008091210F8093F100809153
:1054D000220F8093F1008091260F8093F10080913C
:1054E000270F8093F1008091240F8093F100809129
:1054F000250F8093F1008091230F8093F1000E948B
:105500003F06FF2009F440C081E08093E9008091CC
:10551000E80085FFFCCF8AE78093F10080912C0F93
:105520008093F10080912D0F8093F10080912A0FDC
:105530008093F10080912B0F8093F1008091280FD0
:105540008093F1008091290F8093F10080912E0FBC
:105550008093F10080912F0F8093F1008091300FA4
:105560008093F1008091310F8093F1008091320F90
:105570008093F1008091330F8093F1008091340F7C
:105580008093F1000E943F06002309F460C081E08F
:105590008093E9008091E80085FFFCCF89E5809346
:1055A000F1008091060F8093F1008091070F8093A6
:1055B000F1008091C3108093F1008091530F80938C
:1055C000F1008091080F8093F1008091090F809382
:1055D000F10080910A0F8093F10080910B0F80936E
:1055E000F10080910C0F8093F1008091550F809312
:1055F000F10080916A108093F1008091540F8093A4
:10560000F10080910D0F8093F1008091100F809335
:10561000F10080910E0F8093F10080910F0F809325
:10562000F10080914E0F8093F1008091110F8093D3
:10563000F1008091120F8093F1008091B51080935A
:10564000F1008091B6108093F1000E943F06112373
:1056500001F181E08093E9008091E80085FFFCCFB3
:1056600086E68093F1008091490F8093F10080914C
:105670004A0F8093F10080914B0F8093F10080914D
:105680004C0F8093F10080914D0F8093F1000E94A8
:105690003F06DD2049F181E08093E9008091E80038
:1056A00085FFFCCFC955DF4FF881C75AD040F09332
:1056B000F100C855DF4F8880C85AD040882D90E04F
:1056C000FC01EA59F04F8A51904F20812093F1005C
:1056D000DF01A058BF4F2C912093F1003496E817BA
:1056E000F90799F70E943F06C656DF4F9880CA59BE
:1056F000D040992009F445C081E08093E900809171
:10570000E80085FFFCCF81E68093F1008091450F92
:105710008093F1008091460F8093F1001092F10088
:105720001092F1001092F1001092F1008091E308C4
:105730008093F1008091E4088093F1008091E50866
:105740008093F1008091E6088093F1008091DF085A
:105750008093F1008091E0088093F1008091E1084E
:105760008093F1008091E2088093F10088E490E05A
:105770009A8389838093F1008A818093F1000E944B
:105780003F06C756DF4F2881C959D040222321F157
:1057900081E08093E9008091E80085FFFCCF80E7FD
:1057A0008093F1006091350F7091360F8091370F23
:1057B0009091380F20E030E044E353E40E946B8581
:1057C0002BED3FE049E450E40E946C830E94D483B7
:1057D0006093F1000E943F06C556DF4F3881CB59D8
:1057E000D040332361F181E08093E9008091E800AB
:1057F00085FFFCCF81E78093F1008091AF0E80930D
:10580000F1008091B00E8093F1008091B10E8093F1
:10581000F1008091B20E8093F1008091B30E8093DD
:10582000F10080919C118093F10080919D118093F3
:10583000F10080919E118093F1000E943F06C456B2
:10584000DF4F4881CC59D040442309F494C081E013
:105850008093E9008091E80085FFFCCF82E7809388
:10586000F10080914F0F8093F1008091510F809350
:10587000F1008091500F8093F1008091520F80933E
:10588000F10060915E0F70915F0F8091600F9091B9
:10589000610F20E030E044E353E40E946B852BED80
:1058A0003FE049E450E40E946C830E94D9836093F6
:1058B000F1006091620F7091630F8091640F90917D
:1058C000650F20E030E044E353E40E946B852BED4C
:1058D0003FE049E450E40E946C830E94D9836093C6
:1058E000F1006091560F7091570F8091580F909171
:1058F000590F20E030E044E353E40E946B852BED28
:105900003FE049E450E40E946C830E94D48360939A
:10591000F10060915A0F70915B0F80915C0F909134
:105920005D0F20E030E044E353E40E946B852BEDF3
:105930003FE049E450E40E946C830E94D48360936A
:10594000F100809148118093F1008091A011809323
:10595000F1008091A1118093F1008091A3118093B7
:10596000F1008091A2118093F1008091A4118093A5
:10597000F1000E943F06C755DF4F5881C95AD040F9
:105980005523E9F081E08093E9008091E80085FFEC
:10599000FCCF83E78093F10081E08093F1009AE1EE
:1059A0009093F1008093F10085E18093F1008BE00A
:1059B0008093F1008DE08093F1000E943F06C35672
:1059C000DF4F6881CD59D0406623E1F181E08093BB
:1059D000E9008091E80085FFFCCF8BE78093F10020
:1059E000809166108093F100809167108093F100A0
:1059F000809168108093F100609140117091411185
:105A0000809142119091431120E030E040E251E456
:105A10000E946B850E94D9836093F10060914411CC
:105A200070914511809146119091471120E030E02E
:105A300040E251E40E946B850E94D9836093F1009B
:105A40000E943F06C256DF4F7881CE59D04077235F
:105A5000E1F081E08093E9008091E80085FFFCCFD0
:105A60008DE78093F1008091C4108093F1008091C4
:105A7000C5108093F1008091C6108093F100809151
:105A8000C7108093F1000E943F06C156DF4F888106
:105A9000CF59D040882341F181E08093E900809183
:105AA000E80085FFFCCF8EE78093F1002EEC30E11B
:105AB00080E090E00DC041914093F100E217F307C0
:105AC000D1F701969F012A5F3F4F8630910551F033
:105AD000FC01EE0FFF1FE80FF91FEE0FFF1FE85349
