:100000000C940B010C944F420C94FA420C942A016C
:100010000C942A010C94A5430C9452440C94FF4474
:100020000C94AC450C94A4410C946F340C942A01AC
:100030000C942A010C9457460C942A010C942A0122
:100040000C94AA020C942A010C942A010C942A0103
:100050000C942A010C942A010C942A010C949346C6
:100060000C942A010C94AA460C940F470C9419473F
:100070000C942A010C9423470C942A010C942A0115
:100080000C942A010C942A010C942A010C942A0144
:100090000C942A010C942A01084AD73B3BCE016EEE
:1000A00084BCBFFDC12F3D6C74319ABD56833DDACF
:1000B0003D00C77F11BED9E4BB4C3E916BAAAABEDE
:1000C000000000803F05A84CCDB2D44EB93836A907
:1000D000020C50B9918688083CA6AAAA2ABE000044
:1000E00000803F08000000BE922449123EABAAAA3D
:1000F0002ABECDCCCC4C3E00000080BEABAAAAAA42
:100100003E00000000BF000000803F000000000033
:10011000084178D3BB4387D1133D190E3CC3BD4280
:1001200082AD2B3E68EC8276BED98FE1A93E4C8031
:10013000EFFFBE01C4FF7F3F00000000000664EC3B
:100140001B3C04BC163E3BE5B93CC93C37C29E5A39
:100150003D660498083EEA69AAAA3E000000803F76
:100160001201000200000040EB0314209000010285
:10017000000109022900010100804B09040000026E
:10018000030000000921110100012235000705814B
:10019000034000010705020340000A0C034100541C
:1001A000004D0045004C00360353004D0041004C0B
:1001B000004C00540049004D0060005300200041F5
:1001C00000550054004F00500049004C004F0054AF
:1001D00000200042004F0041005200440004030987
:1001E0000406FFFF0901A10109020903150026FF0A
:1001F0000075089540810209040905150026FF00D5
:1002000075089540910209060907150026FF00753B
:10021000089504B102C011241FBECFEFD0E2DEBFAB
:10022000CDBF11E0A0E0B1E0E8EDF0E101E00BBFEF
:1002300002C007900D92AE3CB107D9F712E1AEECC7
:10024000B1E001C01D92AC39B107E1F70E94A235BF
:100250000C946A880C94000010921C0B80918C0501
:1002600090918D0585309105B0F18091C007823065
:1002700091F58091BF07813071F5809171118130C6
:1002800051F580931C0B80912C08813009F04AC0F5
:100290006091EC077091ED078091EE079091EF0768
:1002A00024EE38E34EE85EE30E94A4852091F8072F
:1002B0003091F9074091FA075091FB070E94A485FD
:1002C0006093180B7093190B80931A0B90931B0B70
:1002D0000E94398008958091A2058130B9F460911F
:1002E0004D0870914E0880914F089091500820E081
:1002F00030E048EC51E40E944E8518163CF48091A1
:100300007111882319F082E080931C0B8091540CAA
:100310009091550C6EE170E00E94C386009711F435
:100320000E94398008958498839881B3807181BB3D
:1003300081B3887081BB089583988EE090E0FC01C2
:100340003197F1F7849A0197F1F70895849A8EE036
:1003500090E0FC013197F1F78398E7E0F0E0319706
:10036000F1F784980197F1F7089598E067E070E05D
:100370004EE050E0839AFB013197F1F787FF02C00E
:10038000849801C0849AFA013197F1F78398FA01B1
:100390003197F1F720E030E002C02F5F3F4F7B99AB
:1003A00003C024363105C9F7915011F0880FE2CF10
:1003B000839A87E090E00197F1F784988EE090E0CF
:1003C000FC013197F1F78398FC013197F1F72FB1D8
:1003D000839A0197F1F781E024FD80E00895782F5A
:1003E000849868E090E880E04EE050E0839AFA015B
:1003F0003197F1F78398FA013197F1F725E630E06C
:100400007B9903C021503040D9F77C99892B6150EA
:1004100011F09695EBCF839AE7E0F0E03197F1F792
:10042000772311F0849A01C084982EE030E0F9011E
:100430003197F1F78398F9013197F1F7839AF90130
:100440003197F1F70895EF92FF921F93DF93CF93C7
:100450000F92CDB7DEB7162F7A0189830E949C01D7
:100460008981880F0E94B50106C0F70181917F0143
:100470000E94B50111501123C1F70E94A6010F90EF
:10048000CF91DF911F91FF90EF900895EF92FF922F
:100490001F93DF93CF9300D00F92CDB7DEB7162F07
:1004A0004A835B8389830E949C018981880F8160D4
:1004B0000E94B5014A815B817A010AC081E0123055
:1004C00008F480E00E94EF01F70181937F01115051
:1004D0001123A1F70E94A6010F900F900F90CF91CA
:1004E000DF911F91FF90EF90089590E0FC01ED588F
:1004F000FE4EE081F894DC01AA0FBB1FAC5BB44F49
:10050000F0E0EE0FFF1FE251FE4F20813181119686
:100510003C932E937894FC01EE5BF44F22A52F5F61
:1005200022A72D913C91DC01AA0FBB1FA358B14F0C
:1005300017968D919C9118978217930750F45796B0
:100540008D919C9158972817390718F482A18F5FD5
:1005500082A308951F920F920FB60F920BB60F92BF
:1005600011242F933F938F939F93EF93FF93E091E9
:10057000EC01F091ED0180918600909187009183CC
:1005800080838091810086FF05C000B605FE09C00A
:100590008AE104C000B605FC04C08AE580938100AE
:1005A0001FC03296F093ED01E093EC0180911002B0
:1005B00090911102E817F90740F080910E02909196
:1005C0000F029093ED018093EC0180918600909151
:1005D0008700E091EC01F091ED01449691838083D6
:1005E0008091EC019091ED0102969093ED01809342
:1005F000EC0120911002309111028217930740F014
:1006000080910E0290910F029093ED018093EC0186
:10061000FF91EF919F918F913F912F910F900BBE82
:100620000F900FBE0F901F90189580E096E00E94EB
:1006300027879C0190930F0280930E029093ED0107
:100640008093EC0190932C0280932B0220503A4F20
:1006500030931102209310021092410B81E080939D
:1006600001011092CF018BE2809380008AE1809398
:10067000810084E480BF8FE39CE99093890080939C
:100680008800EFE6F0E080818062808382E08093E2
:100690007F001DBA1092680010926B0010926E00DD
:1006A00008951F93CF93DF9380910201882309F06F
:1006B0007BC0809112028F3009F076C080912A02AF
:1006C000882309F071C0EEEEF1E041E051E026C070
:1006D000880F991FA52FB0E0AE5EBD4F7C917423AB
:1006E00011F0282B392B403819F45F5F41E001C02D
:1006F000440F615069F7C901880F991F880F991F2E
:10070000820F931F96958795969587958052994F5E
:100710008193919381E0EE3FF80731F06BE081E047
:1007200090E020E030E0D6CF1092CE0110E0812F93
:100730000E9475021F5F1830D1F780912802807CDB
:10074000803C61F580912602829586958770C82F3E
:10075000D0E08091270290E043E0880F991F4A95EE
:10076000E1F7C82BD92BD070BE0180E090E00E9449
:100770003E842DEC3CEC4CEC5DE30E94A485609340
:10078000690870936A0880936B0890936C0881E005
:100790008093400BD0937B05C0937A05809129020A
:1007A00088708093410B0DC08091D1019091D2014E
:1007B00001969093D2018093D10190937905809313
:1007C00078051092D5011092D8011092D60110929E
:1007D000D70188E180930201DF91CF911F910895A5
:1007E0008F929F92BF92CF92DF92EF92FF920F93E0
:1007F0001F93DF93CF930F92CDB7DEB7F894E090BD
:10080000EC01F090ED01789488249924082F10E0F1
:1008100030E1B32ECC24C394DD24DA9496C08191C8
:100820009191F0932C02E0932B0220910E023091D3
:100830000F02A90140505A4FE417F50720F03093FA
:100840002C0220932B024091D3015091D4019C01A2
:10085000241B350B4817590710F0205C3346909342
:10086000D4018093D3018091D9018F5F8093D90106
:1008700080FD05C03093DB012093DA0163C08091D5
:10088000DA019091DB01820F931F20910101222355
:1008900059F1233398F0109201018091D0018B30EF
:1008A00018F0D092CF014EC08091CF018B3018F05C
:1008B000C092CF0147C01092CF0144C0813F910543
:1008C00030F48091D0018F5F8093D00109C036E071
:1008D0008034930728F48091CF018F5F8093CF01FC
:1008E0002F5F209301012EC02091CF01222311F010
:1008F000880F991FE3E188389E0770F0109200017D
:100900001092CE0190E0892F99830E9475029981FF
:100910009F5F9830C1F716C0F5E08C3D9F0780F0CF
:1009200020910001203160F4E22FF0E0EE0FFF1F74
:10093000E251FE4F918380832F5F2093000102C01C
:10094000B09200010894811C911CE0912B02F0915F
:100950002C02EE15FF0521F08016910608F45FCFFA
:100960000F90CF91DF911F910F91FF90EF90DF904B
:10097000CF90BF909F908F9008950F931F930A96EA
:1009800064E170E00E94C386862F81508A3008F0AF
:1009900061C00091D601202F30E07091D801B09154
:1009A000D501A091D7011091020189E090E0772351
:1009B00051F4613011F0013019F01092D80117C0D4
:1009C000615071E034C0B00F7A3058F4AC01471B6D
:1009D0005109F90102C0EE0FFF1F4A95E2F7AE2B55
:1009E00025C07A3019F5002349F07093D801B093EF
:1009F000D501A093D701109302012CC0B0FDF5CF13
:100A0000E12FF0E0EE5EFD4FA083112351F47093CF
:100A1000D801B093D501A093D7011092020182E0D2
:100A20001AC01150A0E0B0E070E001C07F5F6150DB
:100A300009F0BDCF7093D801B093D501A093D70131
:100A40001093020181E09091D601891B8093D60119
:100A500080E001C081E01F910F910895CF93DF9353
:100A6000FC0180819181A0910E02B0910F02ED01F5
:100A7000C250DA4F15C03297EA17FB0708F4FE019F
:100A8000408151818417950720F49C01205C3346F6
:100A900001C09C01241B350BCA01213F310528F4FC
:100AA000E617F70741F7E0E0F0E0CF01DF91CF91E3
:100AB0000895CF93DF938091CF018F3F21F080E4A1
:100AC0000E94F00382C0F8946091EC017091ED01F6
:100AD0008091840090918500789420912B02309130
:100AE0002C022617370709F470C070932C0260930C
:100AF0002B02EB01229720910E0230910F02C217B8
:100B0000D30718F4E901C250DA4F288139818217DE
:100B1000930710F4805C9346821B930B803F9105F2
:100B200038F4CE010E942E05EC01009709F44DC067
:100B3000888199819093D4018093D3011092D5013B
:100B40001092D6011092D70181E08093D80188E1FC
:100B50008093020133C0229780910E0290910F0280
:100B6000C817D90718F4EC01C250DA4F288139812F
:100B70008091D3019091D4012817390710F0805C3F
:100B80009346821B930B3093D4012093D3010E9490
:100B9000BD04882399F0823019F40E94510315C0D6
:100BA0008091D1019091D20101969093D2018093CE
:100BB000D101909379058093780507C080912B022D
:100BC00090912C02C817D90731F6DF91CF91089583
:100BD00040E0E0E0F0E08491480F31962FEFEF3FE6
:100BE000F207C9F78FEF9FEFA0E0B0E0ABBFFC01C9
:100BF0002791420F0196A11DB11D8F3F2DEF920746
:100C000021E0A20720E0B20789F78091830E8417C4
:100C100019F420E030E002C02FEF3FEF8091820E08
:100C2000893D39F089ED8093820E4093830E21E057
:100C300030E0C901089580E090E0089580E090E000
:100C4000089580E090E0089580E090E0089580E0CD
:100C500090E0089580E090E0089580E090E00895AD
:100C600080E090E008950E947C7181E08093A4056B
:100C70000E94B6471092A4050E947E71089580E4F8
:100C80009FEF9093F1008150E1F78091E8008E7F13
:100C90008093E8008091E8008F778093E8000895C2
:100CA0008091A4058823E9F182E08093E900809196
:100CB000E80082FF0CC08091F1008091E8008B7FFA
:100CC0008093E8008091E8008F778093E80081E0CE
:100CD0008093E9008091E80085FF23C08EEF809328
:100CE000F1008091C0088093F1008091C108809349
:100CF000F1008091C2088093F1008091C308809335
:100D0000F10080E08093F1008F5F8034D9F780910B
:100D1000E8008E7F8093E8008091E8008F778093D1
:100D2000E800089508950F931F93DF93CF9300D0A9
:100D300000D000D0CDB7DEB781E08093E90080918C
:100D4000E80085FFF8C46091DD017091DE018091BB
:100D5000DF019091E00125E030E040E050E00E94AA
:100D6000EA86611571058105910509F0B4C18AEA29
:100D70008093F1006091D60A7091D70A8091D80AC9
:100D80009091D90A20E030E041EE54E40E94A4851D
:100D90002BED3FE049E450E40E94A5830E940D84BE
:100DA0007A8369838E010F5F1F4F6093F100F80112
:100DB00081818093F1006091DA0A7091DB0A809161
:100DC000DC0A9091DD0A20E030E041EE54E40E941C
:100DD000A4852BED3FE049E450E40E94A5830E94E6
:100DE0000D847A8369836093F100F8018181809397
:100DF000F1006091DE0A7091DF0A8091E00A909123
:100E0000E10A20E030E041EE54E40E94A4852BED9D
:100E10003FE049E450E40E94A5830E940D847A8358
:100E200069836093F100F80181818093F100E1E52D
:100E3000FDE080818093F10081818093F100329602
:100E40008DE0EB35F807A9F760916E0870916F0897
:100E5000809170089091710820E030E041EE54E4F8
:100E60000E94A4852BED3FE049E450E40E94A58355
:100E70000E940D847A8369836093F100F801818177
:100E80008093F100609172087091730880917408EA
:100E90009091750820E030E041EE54E40E94A48572
:100EA0002BED3FE049E450E40E94A5830E940D84AD
:100EB0007A8369836093F100F80181818093F10066
:100EC00060918608709187088091880890918908C0
:100ED00020E030E041EE54E40E94A4852BED3FE099
:100EE00049E450E40E94A5830E940D847A836983BB
:100EF0006093F100F80181818093F10060918A088C
:100F000070918B0880918C0890918D0820E030E0E2
:100F100041EE54E40E94A4852BED3FE049E450E407
:100F20000E94A5830E940D847A8369836093F100F7
:100F3000F80181818093F1006091240F7091250F59
:100F40008091260F9091270F20E030E044E353E496
:100F50000E94A4852BED3FE049E450E40E94A58364
:100F60000E940D846093F1006091280F7091290F09
:100F700080912A0F90912B0F20E030E044E353E45E
:100F80000E94A4852BED3FE049E450E40E94A58334
:100F90000E940D846093F100EAE4F5E08081809383
:100FA000F10081818093F100329685E0EA35F807FF
:100FB000A9F7809143088093F100809144088093C1
:100FC000F100809141088093F10080914208809364
:100FD000F100809139108093F10080913A10809354
:100FE000F1006091690870916A0880916B08909196
:100FF0006C0820E030E040E251E40E94A4850E94A9
:1010000012846093F10080916D088093F1008091CB
:101010006E118093F1006091E20A7091E30A809171
:10102000E40A9091E50A20E030E041EE54E40E94A9
:10103000A4852BED3FE049E450E40E94A5830E9483
:101040000D847A8369836093F100F8018181809334
:10105000F1006091E60A7091E70A8091E80A9091A8
:10106000E90A20E030E041EE54E40E94A4852BED33
:101070003FE049E450E40E94A5830E940D847A83F6
:1010800069836093F100F80181818093F1006091A0
:10109000EA0A7091EB0A8091EC0A9091ED0A20E047
:1010A00030E041EE54E40E94A4852BED3FE049E49A
:1010B00050E40E94A5830E940D847A836983609323
:1010C000F100F80181818093F10080E49AEA909325
:1010D000F1008150E1F76091DD017091DE018091B6
:1010E000DF019091E00125E030E040E050E00E9417
:1010F000EA86613071058105910509F0C8C086E571
:101100008093F1008091FA0A8093F1008091FB0AAC
:101110008093F1008091FC0A8093F1008091FD0A98
:101120008093F1008091FE0A8093F1008091FF0A84
:101130008093F10080910C0B8093F10080910D0B56
:101140008093F10080910E0B8093F10080910F0B42
:101150008093F1008091100B8093F1008091110B2E
:101160008093F1008091120B8093F1008091130B1A
:101170008093F1008091140B8093F1008091150B06
:101180008093F1008091160B8093F1008091170BF2
:101190008093F1006091A7087091A8088091A90838
:1011A0009091AA0820E030E041EE54E40E94A4852A
:1011B0002BED3FE049E450E40E94A5830E940D849A
:1011C0007A8369836093F1008A818093F100609152
:1011D000030F7091040F8091050F9091060F20E08E
:1011E00030E044E353E40E94A4852BED3FE049E462
:1011F00050E40E94A5830E940D846093F100E0E713
:10120000F5E081918093F10085E0E737F807C9F7B1
:101210003F9781918093F10085E0EF36F807C9F799
:10122000399680818093F10081818093F10032961C
:1012300085E0E638F807A9F7809188058093F100EA
:10124000809189058093F10080918A058093F10057
:1012500080918B058093F10080918C058093F10043
:1012600080918D058093F10080918F058093F1002E
:101270008091730D8093F1008091740D8093F10043
:1012800080E09AEA9093F1008F5F8034D9F7609103
:10129000DD017091DE018091DF019091E00125E098
:1012A00030E040E050E00E94EA866230710581053E
:1012B000910509F0FFC08CEA8093F1008091C2078C
:1012C0008093F1008091BE078093F1008091C00768
:1012D0008093F1008091C1078093F1008091D00745
:1012E0008093F1008091D1078093F1008091D20723
:1012F0008093F1008091D3078093F1008091D4070F
:101300008093F1008091D5078093F1008091D607FA
:101310008093F1008091D7078093F1008091D807E6
:101320008093F1008091D9078093F1008091DA07D2
:101330008093F1008091DB078093F1008091C407D6
:101340008093F1008091C5078093F1008091C607DA
:101350008093F1008091C7078093F1008091C807C6
:101360008093F1008091C9078093F1008091CA07B2
:101370008093F1008091CB078093F1008091CC079E
:101380008093F1008091CD078093F1008091CE078A
:101390008093F1008091CF078093F1008091F00756
:1013A0008093F1008091F1078093F1008091F20722
:1013B0008093F1008091F3078093F1008091FC0706
:1013C0008093F1008091FD078093F1008091FE07EA
:1013D0008093F1008091FF078093F1008091DC07FA
:1013E0008093F1008091DD078093F1008091DE070A
:1013F0008093F1008091DF078093F1008091EC07EA
:101400008093F1008091ED078093F1008091EE07C9
:101410008093F1008091EF078093F1008091100894
:101420008093F100809111088093F100809112085F
:101430008093F100809113088093F1008091390826
:101440008093F10080913A088093F10080913B08ED
:101450008093F10080913C088093F10080912408F2
:1014600090912508A0912608B0912708209128087E
:101470003091290840912A0850912B08821B930B28
:10148000A40BB50B8B839C83AD83BE83FE01339687
:101490008093F10081818093F10082818093F1003B
:1014A00083818093F10080E09FEF9093F1008F5F44
:1014B0008034D9F76091DD017091DE018091DF0108
:1014C0009091E00125E030E040E050E00E94EA86A3
:1014D000633071058105910509F062C080E6809353
:1014E000F1001092F100E5E6FCE080818093F100CC
:1014F00081818093F10032968CE0E537F807A9F7F7
:10150000E4EAFEE080818093F10081818093F10024
:1015100032968EE0E43BF807A9F7709680818093BD
:10152000F10081818093F10032968EE0E43DF8076E
:10153000A9F78091F8118093F1008091F9118093BF
:10154000F1008091FC118093F1008091FD11809356
:10155000F100809100128093F1008091011280933C
:10156000F100809104128093F10080910512809324
:10157000F100809108128093F1008091091280930C
:10158000F10080910C128093F10080910D128093F4
:10159000F10080E09AEA9093F1008F5F8034D9F7F0
:1015A0006091DD017091DE018091DF019091E00199
:1015B00025E030E040E050E00E94EA8664307105AA
:1015C0008105910509F09AC080E68093F10081E0E1
:1015D0008093F100E4EBFEE080818093F100818153
:1015E0008093F10032968EE0E43CF807A9F7E4E836
:1015F000FEE080818093F10081818093F10032963A
:101600008EE0E439F807A9F780818093F1008181A9
:101610008093F10032968EE0E43AF807A9F78091C2
:10162000C9088093F100809191058093F100809129
:1016300092058093F100809193058093F100809151
:1016400094058093F1008091AB088093F100E091C4
:101650005A05E093F100F0E0E358F14F8081809368
:10166000F100809190058093F1006091A208709143
:10167000A3088091A4089091A50820E030E048ECF0
:1016800052E40E94A4850E940D846093F100609151
:101690009A0870919B0880919C0890919D0820E089
:1016A00030E048EC52E40E94A4850E940D846093CF
:1016B000F10060919E0870919F088091A008909120
:1016C000A10820E030E048EC52E40E94A4850E948A
:1016D0000D847A8369836093F100E0915B05E09368
:1016E000F100F0E0E659FE4E80818093F10080E049
:1016F0009AEA9093F1008F5F8034D9F78091DD01F1
:101700009091DE01A091DF01B091E0010196A11D51
:10171000B11D8093DD019093DE01A093DF01B093B2
:10172000E0018091E8008E7F8093E8008091E800DE
:101730008F778093E80026960FB6F894DEBF0FBE31
:10174000CDBFCF91DF911F910F9108958091DC0162
:101750008F5F8093DC010895109A80EA96E8A1E0FB
:10176000B0E000000197A109B109D9F7119A1098CA
:1017700080EA96E8A1E0B0E000000197A109B10974
:10178000D9F7129A119880EA96E8A1E0B0E000003B
:101790000197A109B109D9F7139A129880EA96E83E
:1017A000A1E0B0E000000197A109B109D9F71398B1
:1017B000089580E090E0109A119A129A139A20E00E
:1017C00030E000002F5F3F4F4EE420323407C9F76E
:1017D000109811981298139820E030E000002F5FC5
:1017E0003F4F4EE420323407C9F701968A30910505
:1017F00011F708952F923F924F925F926F927F92CE
:101800008F929F92AF92BF92CF92DF92EF92FF9210
:101810000F931F93DF93CF93CDB7DEB7C35CD04058
:101820000FB6F894DEBF0FBECDBF1C821B8282E0D4
:101830008093E9008091E80082FD02C00C9426208C
:10184000FE017996CE01875A9F4F2091F100219396
:10185000E817F907D1F78091E8008B7F8093E800C3
:101860008091E8008F778093E800898D853511F0AD
:101870000C9426208A8D8A3A11F00C9426208B8DA8
:10188000853511F00C9426208C8D8A3A11F00C9439
:1018900026208D8D893C11F40C9461188A3C08F047
:1018A00073C0823B09F4A3C6833B98F5833A09F4DD
:1018B0004FC4843AB0F48F3009F47DC1803148F4CC
:1018C000813011F40C942C20833011F00C942620DC
:1018D000DDC0813A09F40BC3823A11F00C94262042
:1018E0008CC3883A09F49AC5893A40F4843A09F4D9
:1018F000AEC4873A11F00C94262027C58B3A09F420
:1019000057C2813B09F4F3C58A3A11F00C942620A2
:10191000BFC18E3B11F40C9476168F3BD8F4883BF4
:1019200009F4ADC7893B40F4843B09F474C6853B98
:1019300011F00C94262029C78C3B11F40C945315FC
:101940008D3B10F00C940116893B11F00C9426206D
:101950000C94D914853C11F40C94A917863C50F4CE
:10196000813C11F40C941D17843C11F00C9426203A
:101970000C94A217873C11F40C94B717883C10F014
:101980000C9450180C94B017883D11F40C94A01CC2
:10199000893DD0F58F3C11F40C94F719803DD0F4BB
:1019A0008C3C11F40C9499188D3C50F48A3C11F441
:1019B0000C9475188B3C11F00C9426200C9487180D
:1019C0008D3C11F40C9415198E3C11F00C942620CA
:1019D0000C949019843D11F40C94321B853D50F405
:1019E000803D11F40C94591A813D11F00C9426207D
:1019F0000C94C81A863D11F40C94EF1B873D10F02F
:101A00000C944A1C0C94931B803E11F40C949E1E63
:101A1000813EF0F48B3D11F40C94941D8C3D50F4F8
:101A2000893D11F40C94F51C8A3D11F00C9426208C
:101A30000C94451D8E3D11F40C94231E8F3D10F027
:101A40000C94631E8C3D11F00C9426200C94DE1D2A
:101A5000833E11F40C94311F843E50F4813E11F406
:101A60000C94D41E823E11F00C9426200C94051F79
:101A7000853E11F40C947A1F853E10F40C94581F87
:101A8000863E11F00C9426200C94971FC755DF4F0B
:101A90001882C95AD040C855DF4F1882C85AD04062
:101AA000C955DF4F1882C75AD040DD24AA24CF542D
:101AB000DF4F1882C15BD040CA55DF4F1882C65A2B
:101AC000D040C055DF4F1882C05BD040CB55DF4FB0
:101AD0001882C55AD040C155DF4F1882CF5AD04026
:101AE000CC55DF4F1882C45AD040C255DF4F188200
:101AF000CE5AD040CD55DF4F1882C35AD040C3557F
:101B0000DF4F1882CD5AD040CE55DF4F1882C25ACF
:101B1000D040C455DF4F1882CC5AD040CF55DF4F4C
:101B20001882C15AD0402224C056DF4F1882C05AB2
:101B3000D0403324C156DF4F1882CF59D0404424BF
:101B4000C256DF4F1882CE59D0405524C356DF4FBE
:101B50001882CD59D040772400E06624C456DF4F68
:101B60001882CC59D040C556DF4F1882CB59D0408F
:101B7000C656DF4F1882CA59D04010E08824FF248F
:101B80009924EE24BB24C756DF4F1882C959D04090
:101B9000CC24C555DF4F1882CB5AD040C655DF4FF5
:101BA0001882CA5AD0408E8D809339108F8D8093C1
:101BB0003A100C9446218E8D8B838F8D8C83C75564
:101BC000DF4F1882C95AD040C855DF4F1882C85A13
:101BD000D040C955DF4F1882C75AD040DD24CA55BE
:101BE000DF4F1882C65AD040CB55DF4F1882C55AF6
:101BF000D040CC55DF4F1882C45AD040CD55DF4F6E
:101C00001882C35AD040CE55DF4F1882C25AD040F6
:101C1000CF55DF4F1882C15AD040C056DF4F1882CF
:101C2000C05AD040C156DF4F1882CF59D040C2565B
:101C3000DF4F1882CE59D040C356DF4F1882CD599E
:101C4000D04000E0C456DF4F1882CC59D040C55672
:101C5000DF4F1882CB59D040C656DF4F1882CA5981
:101C6000D04010E0FF24EE24C756DF4F1882C95938
:101C7000D04083E58CBD81E08093A405129AAB80AF
:101C8000BC80A114B10411F00C944E210C94492194
:101C9000C755DF4F1882C95AD040C855DF4F188248
:101CA000C85AD040C955DF4F1882C75AD040DD24EA
:101CB000AA24CF54DF4F1882C15BD040CA55DF4FF2
:101CC0001882C65AD040C055DF4F1882C05BD04042
:101CD000CB55DF4F1882C55AD040C155DF4F18820F
:101CE000CF5AD040CC55DF4F1882C45AD040C2558D
:101CF000DF4F1882CE5AD040CD55DF4F1882C35ADD
:101D0000D040C355DF4F1882CD5AD040CE55DF4F5B
:101D10001882C25AD040C455DF4F1882CC5AD040E6
:101D2000CF55DF4F1882C15AD0402224C056DF4F12
:101D30001882C05AD0403324C156DF4F1882CF5981
:101D4000D0404424C256DF4F1882CE59D04055248B
:101D5000C356DF4F1882CD59D040772400E0662467
:101D6000C456DF4F1882CC59D040C556DF4F188279
:101D7000CB59D040C656DF4F1882CA59D04010E028
:101D80008824FF249924EE24BB24C756DF4F1882F1
:101D9000C959D040CC24C555DF4F1882CB5AD0400A
:101DA00021E0C655DF4F2883CA5AD0400C947421D5
:101DB000FE0171968E8D898B8F8D818388A18283A0
:101DC00089A18383FE0175968AA18D8B8BA1818366
:101DD0008CA182838DA18383C755DF4F1882C95A96
:101DE000D040C855DF4F1882C85AD040C955DF4F80
:101DF0001882C75AD040DD24AA24CF54DF4F18825E
:101E0000C15BD040CA55DF4F1882C65AD040C0557A
:101E1000DF4F1882C05BD040CB55DF4F1882C55AC8
:101E2000D040C155DF4F1882CF5AD040CC55DF4F3C
:101E30001882C45AD040C255DF4F1882CE5AD040C3
:101E4000CD55DF4F1882C35AD040C355DF4F18829B
:101E5000CD5AD040CE55DF4F1882C25AD040C4551B
:101E6000DF4F1882CC5AD040CF55DF4F1882C15A6D
:101E7000D0402224C056DF4F1882C05AD0403324AD
:101E8000C156DF4F1882CF59D0404424C256DF4F8D
:101E90001882CE59D0405524C356DF4F1882CD59F1
:101EA000D040772400E06624C456DF4F1882CC5916
:101EB000D040C556DF4F1882CB59D040C656DF4FB1
:101EC0001882CA59D04010E08824FF249924EE24B7
:101ED000BB24C756DF4F1882C959D040CC2431E00B
:101EE000C555DF4F3883CB5AD0400C942020C755BE
:101EF000DF4F1882C95AD040C855DF4F1882C85AE0
:101F0000D040C955DF4F1882C75AD040DD24AA24DB
:101F1000CF54DF4F1882C15BD040CA55DF4F1882C3
:101F2000C65AD040C055DF4F1882C05BD040CB5559
:101F3000DF4F1882C55AD040C155DF4F1882CF5AA3
:101F4000D040CC55DF4F1882C45AD040C255DF4F25
:101F50001882CE5AD040CD55DF4F1882C35AD04098
:101F6000C355DF4F1882CD5AD040CE55DF4F18826F
:101F7000C25AD040C455DF4F1882CC5AD040CF55FA
:101F8000DF4F1882C15AD0402224C056DF4F18823A
:101F9000C05AD0403324C156DF4F1882CF59D040A9
:101FA0004424C256DF4F1882CE59D0405524C35620
:101FB000DF4F1882CD59D040772400E06624C45604
:101FC000DF4F1882CC59D040C556DF4F1882CB590D
:101FD000D040C656DF4F1882CA59D04010E088243E
:101FE000FF249924EE24BB24C756DF4F1882C95919
:101FF000D040CC24C3940C941B20C755DF4F1882CB
:10200000C95AD040C855DF4F1882C85AD040C95568
:10201000DF4F1882C75AD040DD24AA24CF54DF4FA7
:102020001882C15BD040CA55DF4F1882C65AD040D3
:10203000C055DF4F1882C05BD040CB55DF4F1882B0
:10204000C55AD040C155DF4F1882CF5AD040CC5529
:10205000DF4F1882C45AD040C255DF4F1882CE5A83
:10206000D040CD55DF4F1882C35AD040C355DF4F03
:102070001882CD5AD040CE55DF4F1882C25AD04078
:10208000C455DF4F1882CC5AD040CF55DF4F18824D
:10209000C15AD0402224C056DF4F1882C05AD040C7
:1020A0003324C156DF4F1882CF59D0404424C25642
:1020B000DF4F1882CE59D0405524C356DF4F1882C7
:1020C000CD59D040772400E06624C456DF4F1882F3
:1020D000CC59D040C556DF4F1882CB59D040C65698
:1020E000DF4F1882CA59D04010E08824FF24992479
:1020F000EE24BB24C756DF4F1882C959D040CC24E8
:10210000C555DF4F1882CB5AD040C655DF4F1882D5
:10211000CA5AD0406E8D772767FD7095872F972F0D
:102120000E9440842BED3FE049E450E40E94A485E6
:1021300020E030E044E353E40E94A5836093030F62
:102140007093040F8093050F9093060F0C94462113
:10215000C755DF4F1882C95AD040C855DF4F188283
:10216000C85AD040C955DF4F1882C75AD040DD2425
:10217000AA24CF54DF4F1882C15BD040CA55DF4F2D
:102180001882C65AD040C055DF4F1882C05BD0407D
:10219000CB55DF4F1882C55AD040C155DF4F18824A
:1021A000CF5AD040CC55DF4F1882C45AD040C255C8
:1021B000DF4F1882CE5AD040CD55DF4F1882C35A18
:1021C000D040C355DF4F1882CD5AD040CE55DF4F97
:1021D0001882C25AD040C455DF4F1882CC5AD04022
:1021E000CF55DF4F1882C15AD0402224C056DF4F4E
:1021F0001882C05AD0403324C156DF4F1882CF59BD
:10220000D0404424C256DF4F1882CE59D0405524C6
:10221000C356DF4F1882CD59D040772400E06624A2
:10222000C456DF4F1882CC59D040C556DF4F1882B4
:10223000CB59D040C656DF4F1882CA59D04010E063
:102240008824FF249924EE24E3940C941420C75589
:10225000DF4F1882C95AD040C855DF4F1882C85A7C
:10226000D040C955DF4F1882C75AD040DD24AA2478
:10227000CF54DF4F1882C15BD040CA55DF4F188260
:10228000C65AD040C055DF4F1882C05BD040CB55F6
:10229000DF4F1882C55AD040C155DF4F1882CF5A40
:1022A000D040CC55DF4F1882C45AD040C255DF4FC2
:1022B0001882CE5AD040CD55DF4F1882C35AD04035
:1022C000C355DF4F1882CD5AD040CE55DF4F18820C
:1022D000C25AD040C455DF4F1882CC5AD040CF5597
:1022E000DF4F1882C15AD0402224C056DF4F1882D7
:1022F000C05AD0403324C156DF4F1882CF59D04046
:102300004424C256DF4F1882CE59D0405524C356BC
:10231000DF4F1882CD59D040772400E06624C456A0
:10232000DF4F1882CC59D040C556DF4F1882CB59A9
:10233000D040C656DF4F1882CA59D04010E08824DA
:10234000FF24992493940C941320C755DF4F1882CF
:10235000C95AD040C855DF4F1882C85AD040C95515
:10236000DF4F1882C75AD040DD24AA24CF54DF4F54
:102370001882C15BD040CA55DF4F1882C65AD04080
:10238000C055DF4F1882C05BD040CB55DF4F18825D
:10239000C55AD040C155DF4F1882CF5AD040CC55D6
:1023A000DF4F1882C45AD040C255DF4F1882CE5A30
:1023B000D040CD55DF4F1882C35AD040C355DF4FB0
:1023C0001882CD5AD040CE55DF4F1882C25AD04025
:1023D000C455DF4F1882CC5AD040CF55DF4F1882FA
:1023E000C15AD0402224C056DF4F1882C05AD04074
:1023F0003324C156DF4F1882CF59D0404424C256EF
:10240000DF4F1882CE59D0405524C356DF4F188273
:10241000CD59D040772401E00C94FF1FC755DF4F02
:102420001882C95AD040C855DF4F1882C85AD040C8
:10243000C955DF4F1882C75AD040DD24AA24CF5493
:10244000DF4F1882C15BD040CA55DF4F1882C65A91
:10245000D040C055DF4F1882C05BD040CB55DF4F16
:102460001882C55AD040C155DF4F1882CF5AD0408C
:10247000CC55DF4F1882C45AD040C255DF4F188266
:10248000CE5AD040CD55DF4F1882C35AD040C355E5
:10249000DF4F1882CD5AD040CE55DF4F1882C25A36
:1024A000D040C455DF4F1882CC5AD040CF55DF4FB3
:1024B0001882C15AD0402224C056DF4F1882C05A19
:1024C000D0403324C156DF4F1882CF59D040442426
:1024D000C256DF4F1882CE59D0405524C356DF4F25
:1024E0001882CD59D040772473940C94FE1FC755A1
:1024F000DF4F1882C95AD040C855DF4F1882C85ADA
:10250000D040C955DF4F1882C75AD040DD24AA24D5
:10251000CF54DF4F1882C15BD040CA55DF4F1882BD
:10252000C65AD040C055DF4F1882C05BD040CB5553
:10253000DF4F1882C55AD040C155DF4F1882CF5A9D
:10254000D040CC55DF4F1882C45AD040C255DF4F1F
:102550001882CE5AD040CD55DF4F1882C35AD04092
:10256000C355DF4F1882CD5AD040CE55DF4F188269
:10257000C25AD040C455DF4F1882CC5AD040CF55F4
:10258000DF4F1882C15AD0402224C056DF4F188234
:10259000C05AD0403324C156DF4F1882CF59D040A3
:1025A0004424C256DF4F1882CE59D0405524C3561A
:1025B000DF4F1882CD59D040772400E06624C456FE
:1025C000DF4F1882CC59D040C556DF4F1882CB5907
:1025D000D040C656DF4F1882CA59D04010E0882438
:1025E000FF249924EE24BB24B3940C941520C755E2
:1025F000DF4F1882C95AD040C855DF4F1882C85AD9
:10260000D040C955DF4F1882C75AD040DD24AA24D4
:10261000A3940C943E20C755DF4F1882C95AD0406E
:10262000C855DF4F1882C85AD040C955DF4F1882AD
:10263000C75AD040DD24AA24CF54DF4F1882C15B93
:10264000D040CA55DF4F1882C65AD040C055DF4F20
:102650001882C05BD040CB55DF4F1882C55AD0409E
:10266000C155DF4F1882CF5AD040CC55DF4F18826A
:10267000C45AD040C255DF4F1882CE5AD040CD55F3
:10268000DF4F1882C35AD040C355DF4F1882CD5A4E
:10269000D040CE55DF4F1882C25AD040C455DF4FCC
:1026A0001882CC5AD040CF55DF4F1882C15AD04043
:1026B0002224C056DF4F1882C05AD0403324C1565E
:1026C000DF4F1882CF59D0404424C256DF4F1882C2
:1026D000CE59D0405524C356DF4F1882CD59D04033
:1026E000772400E06624C456DF4F1882CC59D040CE
:1026F000C556DF4F1882CB59D040C656DF4F1882DF
:10270000CA59D04010E08824FF249924EE24BB2429
:10271000C756DF4F1882C959D040CC24C555DF4F6A
:102720001882CB5AD040C655DF4F1882CA5AD040C3
:102730008E8D8093170F8F8D8093180F88A18093B3
:10274000190F99A190931A0F9AA190931B0F44EB24
:102750005EE0CC54DF4F59834883C45BD040405384
:102760005040CE54DF4F59834883C25BD040282F5E
:1027700030E040E050E0C654DF4F288339834A837D
:102780005B83CA5BD0400C94E920C755DF4F1882A9
:10279000C95AD040C855DF4F1882C85AD040C955D1
:1027A000DF4F1882C75AD040DD24AA24CF54DF4F10
:1027B0001882C15BD040CA55DF4F1882C65AD0403C
:1027C000C055DF4F1882C05BD040CB55DF4F188219
:1027D000C55AD040C155DF4F1882CF5AD040CC5592
:1027E000DF4F1882C45AD040C255DF4F1882CE5AEC
:1027F000D040CD55DF4F1882C35AD040C355DF4F6C
:102800001882CD5AD040CE55DF4F1882C25AD040E0
:10281000C455DF4F1882CC5AD040CF55DF4F1882B5
:10282000C15AD0402224C056DF4F1882C05AD0402F
:102830003324C156DF4F1882CF59D0404424C256AA
:10284000DF4F1882CE59D0405524C356DF4F18822F
:10285000CD59D040772400E06624C456DF4F18825B
:10286000CC59D040C556DF4F1882CB59D040C65600
:10287000DF4F1882CA59D04011E00C941020C75580
:10288000DF4F1882C95AD040C855DF4F1882C85A46
:10289000D040C955DF4F1882C75AD040DD24AA2442
:1028A000CF54DF4F1882C15BD040CA55DF4F18822A
:1028B000C65AD040C055DF4F1882C05BD040CB55C0
:1028C000DF4F1882C55AD040C155DF4F1882CF5A0A
:1028D000D040CC55DF4F1882C45AD040C255DF4F8C
:1028E0001882CE5AD040CD55DF4F1882C35AD040FF
:1028F000C355DF4F1882CD5AD040CE55DF4F1882D6
:10290000C25AD040C455DF4F1882CC5AD040CF5560
:10291000DF4F1882C15AD0402224C056DF4F1882A0
:10292000C05AD0403324C156DF4F1882CF59D0400F
:102930004424C256DF4F1882CE59D0405524C35686
:10294000DF4F1882CD59D040772400E06624C4566A
:10295000DF4F1882CC59D040C556DF4F1882CB5973
:10296000D040C656DF4F1882CA59D04010E08824A4
:10297000FF249924EE24BB24C756DF4F1882C9597F
:10298000D040CC24C555DF4F1882CB5AD040C65515
:10299000DF4F1882CA5AD0408E8D8093130F8F8DCF
:1029A0008093140F88A18093150F1092160F0C942A
:1029B0004621C755DF4F1882C95AD040C855DF4F4E
:1029C0001882C85AD040C955DF4F1882C75AD04024
:1029D000DD24AA24CF54DF4F1882C15BD040CA55F2
:1029E000DF4F1882C65AD040C055DF4F1882C05BF7
:1029F000D040CB55DF4F1882C55AD040C155DF4F6C
:102A00001882CF5AD040CC55DF4F1882C45AD040DC
:102A1000C255DF4F1882CE5AD040CD55DF4F1882B5
:102A2000C35AD040C355DF4F1882CD5AD040CE553F
:102A3000DF4F1882C25AD040C455DF4F1882CC5A9B
:102A4000D040CF55DF4F1882C15AD0402224C05603
:102A5000DF4F1882C05AD0403324C156DF4F18824E
:102A6000CF59D0404424C256DF4F1882CE59D040AF
:102A70005524C356DF4F1882CD59D040772400E04B
:102A80006624C456DF4F1882CC59D040C556DF4F5C
:102A90001882CB59D04031E0C656DF4F3883CA592F
:102AA000D0400C940F20C755DF4F1882C95AD04030
:102AB000C855DF4F1882C85AD040C955DF4F188219
:102AC000C75AD040DD24AA24CF54DF4F1882C15BFF
:102AD000D040CA55DF4F1882C65AD040C055DF4F8C
:102AE0001882C05BD040CB55DF4F1882C55AD0400A
:102AF000C155DF4F1882CF5AD040CC55DF4F1882D6
:102B0000C45AD040C255DF4F1882CE5AD040CD555E
:102B1000DF4F1882C35AD040C355DF4F1882CD5AB9
:102B2000D040CE55DF4F1882C25AD040C455DF4F37
:102B30001882CC5AD040CF55DF4F1882C15AD040AE
:102B40002224C056DF4F1882C05AD0403324C156C9
:102B5000DF4F1882CF59D0404424C256DF4F18822D
:102B6000CE59D0405524C356DF4F1882CD59D0409E
:102B7000772400E06624C456DF4F1882CC59D04039
:102B8000C556DF4F1882CB59D040C656DF4F18824A
:102B9000CA59D04010E08824FF249924EE24BB2495
:102BA000C756DF4F1882C959D040CC24C555DF4FD6
:102BB0001882CB5AD040C655DF4F1882CA5AD0402F
:102BC0000E947C7180E090E0A1E0B0E08093B108C9
:102BD0009093B208A093B308B093B4081092AD08D4
:102BE0001092AE081092AF081092B00881E0809366
:102BF000B508FE01E75AFF4FCE0187569F4F0C9450
:102C00004420C755DF4F1882C95AD040C855DF4FFE
:102C10001882C85AD040C955DF4F1882C75AD040D1
:102C2000DD24AA24CF54DF4F1882C15BD040CA559F
:102C3000DF4F1882C65AD040C055DF4F1882C05BA4
:102C4000D040CB55DF4F1882C55AD040C155DF4F19
:102C50001882CF5AD040CC55DF4F1882C45AD0408A
:102C6000C255DF4F1882CE5AD040CD55DF4F188263
:102C7000C35AD040C355DF4F1882CD5AD040CE55ED
:102C8000DF4F1882C25AD040C455DF4F1882CC5A49
:102C9000D040CF55DF4F1882C15AD0402224C056B1
:102CA000DF4F1882C05AD0403324C156DF4F1882FC
:102CB000CF59D0404424C256DF4F1882CE59D0405D
:102CC0005524C356DF4F1882CD59D040772400E0F9
:102CD0006624C456DF4F1882CC59D04041E0C55617
:102CE000DF4F4883CB59D0400C940A20C755DF4FA3
:102CF0001882C95AD040C855DF4F1882C85AD040F0
:102D0000C955DF4F1882C75AD040DD24AA24CF54BA
:102D1000DF4F1882C15BD040CA55DF4F1882C65AB8
:102D2000D040C055DF4F1882C05BD040CB55DF4F3D
:102D30001882C55AD040C155DF4F1882CF5AD040B3
:102D4000CC55DF4F1882C45AD040C255DF4F18828D
:102D5000CE5AD040CD55DF4F1882C35AD040C3550C
:102D6000DF4F1882CD5AD040CE55DF4F1882C25A5D
:102D7000D040C455DF4F1882CC5AD040CF55DF4FDA
:102D80001882C15AD0402224C056DF4F1882C05A40
:102D9000D0403324C156DF4F1882CF59D04044244D
:102DA000C256DF4F1882CE59D0405524C356DF4F4C
:102DB0001882CD59D040772400E06624C456DF4FF6
:102DC0001882CC59D040C556DF4F1882CB59D0401D
:102DD000C656DF4F1882CA59D04010E08824FF241D
:102DE0009924EE24BB24C756DF4F1882C959D0401E
:102DF000CC24C555DF4F1882CB5AD040C655DF4F83
:102E00001882CA5AD0408E8D80937D0E8F8D80930C
:102E10007E0E88A180937F0E89A18093800E8AA167
:102E20008093810E8BA180936A118CA180936B118A
:102E30008DA180936C110C944621C755DF4F1882E9
:102E4000C95AD040C855DF4F1882C85AD040C9551A
:102E5000DF4F1882C75AD040DD24AA24CF54DF4F59
:102E60001882C15BD040CA55DF4F1882C65AD04085
:102E7000C055DF4F1882C05BD040CB55DF4F188262
:102E8000C55AD040C155DF4F1882CF5AD040CC55DB
:102E9000DF4F1882C45AD040C255DF4F1882CE5A35
:102EA000D040CD55DF4F1882C35AD040C355DF4FB5
:102EB0001882CD5AD040CE55DF4F1882C25AD0402A
:102EC000C455DF4F1882CC5AD040CF55DF4F1882FF
:102ED000C15AD0402224C056DF4F1882C05AD04079
:102EE0003324C156DF4F1882CF59D0404424C256F4
:102EF000DF4F1882CE59D0405524C356DF4F188279
:102F0000CD59D040772400E06624C456DF4F1882A4
:102F1000CC59D040C556DF4F1882CB59D040C65649
:102F2000DF4F1882CA59D04010E08824FF2499242A
:102F3000EE24BB2451E0C756DF4F5883C959D04017
:102F40000C941A20C755DF4F1882C95AD040E0E0D0
:102F500014C0C755DF4F1882C95AD040E1E00DC0F8
:102F6000C755DF4F1882C95AD040E2E006C0C755A6
:102F7000DF4F1882C95AD040E3E0C855DF4F1882AE
:102F8000C85AD040C955DF4F1882C75AD040DD24F7
:102F9000AA24CF54DF4F1882C15BD040CA55DF4FFF
:102FA0001882C65AD040C055DF4F1882C05BD0404F
:102FB000CB55DF4F1882C55AD040C155DF4F18821C
:102FC000CF5AD040CC55DF4F1882C45AD040C2559A
:102FD000DF4F1882CE5AD040CD55DF4F1882C35AEA
:102FE000D040C355DF4F1882CD5AD040CE55DF4F69
:102FF0001882C25AD040C455DF4F1882CC5AD040F4
:10300000CF55DF4F1882C15AD0402224C056DF4F1F
:103010001882C05AD0403324C156DF4F1882CF598E
:10302000D0404424C256DF4F1882CE59D040552498
:10303000C356DF4F1882CD59D040772400E0662474
:10304000C456DF4F1882CC59D040C556DF4F188286
:10305000CB59D040C656DF4F1882CA59D04010E035
:103060008824FF249924EE24BB24C756DF4F1882FE
:10307000C959D040CC24C555DF4F1882CB5AD04017
:10308000C655DF4F1882CA5AD040DE015E96F0E086
:10309000EC5CF04F9E012A5A3F4FBF010C94D720A1
:1030A000C755DF4F1882C95AD040C855DF4F188224
:1030B000C85AD04060E8C955DF4F6883C75AD0402E
:1030C00011C0C755DF4F1882C95AD04071E0C855AA
:1030D000DF4F7883C85AD04081E8C955DF4F8883D5
:1030E000C75AD040DD24D394C8C7C755DF4F1882D4
:1030F000C95AD04092E0C855DF4F9883C85AD04093
:10310000E2E8C955DF4FE883C75AD040EBCFC75537
:10311000DF4F1882C95AD040F3E0C855DF4FF8831B
:10312000C85AD04023E8C955DF4F2883C75AD0403A
:10313000D9CFC755DF4F1882C95AD040C855DF4F85
:103140001882C85AD040C955DF4F1882C75AD0409C
:10315000DD24AA24CF54DF4F1882C15BD040CA556A
:10316000DF4F1882C65AD040C055DF4F1882C05B6F
:10317000D040CB55DF4F1882C55AD040C155DF4FE4
:103180001882CF5AD040CC55DF4F1882C45AD04055
:10319000C255DF4F1882CE5AD040CD55DF4F18822E
:1031A000C35AD040C355DF4F1882CD5AD040CE55B8
:1031B000DF4F1882C25AD040C455DF4F1882CC5A14
:1031C000D040CF55DF4F1882C15AD0402224C0567C
:1031D000DF4F1882C05AD0403324C156DF4F1882C7
:1031E000CF59D0404424C256DF4F1882CE59D04028
:1031F0005524C356DF4F1882CD59D040772400E0C4
:103200006624C456DF4F1882CC59D040C556DF4FD4
:103210001882CB59D040C656DF4F1882CA59D040C9
:1032200010E08824FF24F394FDC6C755DF4F1882B1
:10323000C95AD040C855DF4F1882C85AD040C95526
:10324000DF4F1882C75AD040DD24AA24CF54DF4F65
:103250001882C15BD040CA55DF4F1882C65AD04091
:10326000C055DF4F1882C05BD040CB55DF4F18826E
:10327000C55AD040C155DF4F1882CF5AD040CC55E7
:10328000DF4F1882C45AD040C255DF4F1882CE5A41
:10329000D040CD55DF4F1882C35AD040C355DF4FC1
:1032A0001882CD5AD040CE55DF4F1882C25AD04036
:1032B000C455DF4F1882CC5AD040CF55DF4F18820B
:1032C000C15AD0402224C056DF4F1882C05AD04085
:1032D0003324C156DF4F1882CF59D0404424C25600
:1032E000DF4F1882CE59D0405524C356DF4F188285
:1032F000CD59D040772400E06624C456DF4F1882B1
:10330000CC59D040C556DF4F1882CB59D040C65655
:10331000DF4F1882CA59D04010E08824839481C6B8
:10332000C755DF4F1882C95AD040C855DF4F1882A1
:10333000C85AD040C955DF4F1882C75AD040DD2443
:10334000AA24CF54DF4F1882C15BD040CA55DF4F4B
:103350001882C65AD040C055DF4F1882C05BD0409B
:10336000CB55DF4F1882C55AD040C155DF4F188268
:10337000CF5AD040CC55DF4F1882C45AD040C255E6
:10338000DF4F1882CE5AD040CD55DF4F1882C35A36
:10339000D040C355DF4F1882CD5AD040CE55DF4FB5
:1033A0001882C25AD040C455DF4F1882CC5AD04040
:1033B000CF55DF4F1882C15AD0402224C056DF4F6C
:1033C0001882C05AD0403324C156DF4F1882CF59DB
:1033D000D0404424C256DF4F1882CE59D0405524E5
:1033E00031E0C356DF4F3883CD59D04006C6C755AC
:1033F000DF4F1882C95AD040C855DF4F1882C85ACB
:10340000D040C955DF4F1882C75AD040DD24AA24C6
:10341000CF54DF4F1882C15BD040CA55DF4F1882AE
:10342000C65AD040C055DF4F1882C05BD040CB5544
:10343000DF4F1882C55AD040C155DF4F1882CF5A8E
:10344000D040CC55DF4F1882C45AD040C255DF4F10
:103450001882CE5AD040CD55DF4F1882C35AD04083
:10346000C355DF4F1882CD5AD040CE55DF4F18825A
:10347000C25AD040C455DF4F1882CC5AD040CF55E5
:10348000DF4F1882C15AD0402224C056DF4F188225
:10349000C05AD0403324C156DF4F1882CF59D04094
:1034A0004424C256DF4F1882CE59D040552453943D
:1034B0009FC5C755DF4F1882C95AD040C855DF4F46
:1034C0001882C85AD040C955DF4F1882C75AD04019
:1034D000DD24AA24CF54DF4F1882C15BD040CA55E7
:1034E000DF4F1882C65AD040C055DF4F1882C05BEC
:1034F000D040CB55DF4F1882C55AD040C155DF4F61
:103500001882CF5AD040CC55DF4F1882C45AD040D1
:10351000C255DF4F1882CE5AD040CD55DF4F1882AA
:10352000C35AD040C355DF4F1882CD5AD040CE5534
:10353000DF4F1882C25AD040C455DF4F1882CC5A90
:10354000D040CF55DF4F1882C15AD0402224C056F8
:10355000DF4F1882C05AD0403324C156DF4F188243
:10356000CF59D0404424C256DF4F1882CE59D040A4
:103570005524C356DF4F1882CD59D040772400E040
:10358000662441E0C456DF4F4883CC59D0403DC546
:10359000C755DF4F1882C95AD040C855DF4F18822F
:1035A000C85AD040C955DF4F1882C75AD040DD24D1
:1035B000AA24CF54DF4F1882C15BD040CA55DF4FD9
:1035C0001882C65AD040C055DF4F1882C05BD04029
:1035D000CB55DF4F1882C55AD040C155DF4F1882F6
:1035E000CF5AD040CC55DF4F1882C45AD040C25574
:1035F000DF4F1882CE5AD040CD55DF4F1882C35AC4
:10360000D040C355DF4F1882CD5AD040CE55DF4F42
:103610001882C25AD040C455DF4F1882CC5AD040CD
:10362000CF55DF4F1882C15AD0402224C056DF4FF9
:103630001882C05AD0403324C156DF4F1882CF5968
:10364000D0404424C256DF4F1882CE59D040552472
:10365000C356DF4F1882CD59D040772400E066244E
:103660006394CEC4C755DF4F1882C95AD040C8559D
:10367000DF4F1882C85AD040C955DF4F1882C75A49
:10368000D040DD24AA24CF54DF4F1882C15BD04044
:10369000CA55DF4F1882C65AD040C055DF4F188236
:1036A000C05BD040CB55DF4F1882C55AD040C155C2
:1036B000DF4F1882CF5AD040CC55DF4F1882C45A02
:1036C000D040C255DF4F1882CE5AD040CD55DF4F83
:1036D0001882C35AD040C355DF4F1882CD5AD0400C
:1036E000CE55DF4F1882C25AD040C455DF4F1882E2
:1036F000CC5AD040CF55DF4F1882C15AD040222437
:10370000C056DF4F1882C05AD0403324C156DF4F15
:103710001882CF59D040442451E0C256DF4F58831D
:10372000CE59D04064C4C755DF4F1882C95AD04023
:10373000C855DF4F1882C85AD040C955DF4F18828C
:10374000C75AD040DD24AA24CF54DF4F1882C15B72
:10375000D040CA55DF4F1882C65AD040C055DF4FFF
:103760001882C05BD040CB55DF4F1882C55AD0407D
:10377000C155DF4F1882CF5AD040CC55DF4F188249
:10378000C45AD040C255DF4F1882CE5AD040CD55D2
:10379000DF4F1882C35AD040C355DF4F1882CD5A2D
:1037A000D040CE55DF4F1882C25AD040C455DF4FAB
:1037B0001882CC5AD040CF55DF4F1882C15AD04022
:1037C0002224C056DF4F1882C05AD0403324C1563D
:1037D000DF4F1882CF59D0404424439403C4C755C7
:1037E000DF4F1882C95AD040C855DF4F1882C85AD7
:1037F000D040C955DF4F1882C75AD040DD24AA24D3
:10380000CF54DF4F1882C15BD040CA55DF4F1882BA
:10381000C65AD040C055DF4F1882C05BD040CB5550
:10382000DF4F1882C55AD040C155DF4F1882CF5A9A
:10383000D040CC55DF4F1882C45AD040C255DF4F1C
:103840001882CE5AD040CD55DF4F1882C35AD0408F
:10385000C355DF4F1882CD5AD040CE55DF4F188266
:10386000C25AD040C455DF4F1882CC5AD040CF55F1
:10387000DF4F1882C15AD0402224C056DF4F188231
:10388000C05AD040332461E0C156DF4F6883CF591E
:10389000D040A7C3C755DF4F1882C95AD040C8557A
:1038A000DF4F1882C85AD040C955DF4F1882C75A17
:1038B000D040DD24AA24CF54DF4F1882C15BD04012
:1038C000CA55DF4F1882C65AD040C055DF4F188204
:1038D000C05BD040CB55DF4F1882C55AD040C15590
:1038E000DF4F1882CF5AD040CC55DF4F1882C45AD0
:1038F000D040C255DF4F1882CE5AD040CD55DF4F51
:103900001882C35AD040C355DF4F1882CD5AD040D9
:10391000CE55DF4F1882C25AD040C455DF4F1882AF
:10392000CC5AD040CF55DF4F1882C15AD040222404
:10393000C056DF4F1882C05AD040332433944CC352
:10394000C755DF4F1882C95AD040C855DF4F18827B
:10395000C85AD040C955DF4F1882C75AD040DD241D
:10396000AA24CF54DF4F1882C15BD040CA55DF4F25
:103970001882C65AD040C055DF4F1882C05BD04075
:10398000CB55DF4F1882C55AD040C155DF4F188242
:10399000CF5AD040CC55DF4F1882C45AD040C255C0
:1039A000DF4F1882CE5AD040CD55DF4F1882C35A10
:1039B000D040C355DF4F1882CD5AD040CE55DF4F8F
:1039C0001882C25AD040C455DF4F1882CC5AD0401A
:1039D000CF55DF4F1882C15AD040222471E0C05623
:1039E000DF4F7883C05AD040F6C2C755DF4F1882E8
:1039F000C95AD040C855DF4F1882C85AD040C9555F
:103A0000DF4F1882C75AD040DD24AA24CF54DF4F9D
:103A10001882C15BD040CA55DF4F1882C65AD040C9
:103A2000C055DF4F1882C05BD040CB55DF4F1882A6
:103A3000C55AD040C155DF4F1882CF5AD040CC551F
:103A4000DF4F1882C45AD040C255DF4F1882CE5A79
:103A5000D040CD55DF4F1882C35AD040C355DF4FF9
:103A60001882CD5AD040CE55DF4F1882C25AD0406E
:103A7000C455DF4F1882CC5AD040CF55DF4F188243
:103A8000C15AD04022242394A1C2C755DF4F1882C7
:103A9000C95AD040C855DF4F1882C85AD040C955BE
:103AA000DF4F1882C75AD040DD24AA24CF54DF4FFD
:103AB0001882C15BD040CA55DF4F1882C65AD04029
:103AC000C055DF4F1882C05BD040CB55DF4F188206
:103AD000C55AD040C155DF4F1882CF5AD040CC557F
:103AE000DF4F1882C45AD040C255DF4F1882CE5AD9
:103AF000D040CD55DF4F1882C35AD040C355DF4F59
:103B00001882CD5AD040CE55DF4F1882C25AD040CD
:103B1000C455DF4F1882CC5AD04081E0CF55DF4FDB
:103B20008883C15AD04051C2C755DF4F1882C95A45
:103B3000D040C855DF4F1882C85AD040C955DF4F12
:103B40001882C75AD040DD24AA24CF54DF4F1882F0
:103B5000C15BD040CA55DF4F1882C65AD040C0550D
:103B6000DF4F1882C05BD040CB55DF4F1882C55A5B
:103B7000D040C155DF4F1882CF5AD040CC55DF4FCF
:103B80001882C45AD040C255DF4F1882CE5AD04056
:103B9000CD55DF4F1882C35AD040C355DF4F18822E
:103BA000CD5AD040CE55DF4F1882C25AD04091E056
:103BB000C455DF4F9883CC5AD04002C2C755DF4F5F
:103BC0001882C95AD040C855DF4F1882C85AD04011
:103BD000C955DF4F1882C75AD040DD24AA24CF54DC
:103BE000DF4F1882C15BD040CA55DF4F1882C65ADA
:103BF000D040C055DF4F1882C05BD040CB55DF4F5F
:103C00001882C55AD040C155DF4F1882CF5AD040D4
:103C1000CC55DF4F1882C45AD040C255DF4F1882AE
:103C2000CE5AD040CD55DF4F1882C35AD040C3552D
:103C3000DF4F1882CD5AD040E1E0CE55DF4FE88308
:103C4000C25AD040B8C1C755DF4F1882C95AD040B8
:103C5000C855DF4F1882C85AD040C955DF4F188267
:103C6000C75AD040DD24AA24CF54DF4F1882C15B4D
:103C7000D040CA55DF4F1882C65AD040C055DF4FDA
:103C80001882C05BD040CB55DF4F1882C55AD04058
:103C9000C155DF4F1882CF5AD040CC55DF4F188224
:103CA000C45AD040C255DF4F1882CE5AD040CD55AD
:103CB000DF4F1882C35AD040F1E0C355DF4FF8837D
:103CC000CD5AD04073C1C755DF4F1882C95AD04072
:103CD000C855DF4F1882C85AD040C955DF4F1882E7
:103CE000C75AD040DD24AA24CF54DF4F1882C15BCD
:103CF000D040CA55DF4F1882C65AD040C055DF4F5A
:103D00001882C05BD040CB55DF4F1882C55AD040D7
:103D1000C155DF4F1882CF5AD040CC55DF4F1882A3
:103D2000C45AD040C255DF4F1882CE5AD04021E04D
:103D3000CD55DF4F2883C35AD04033C1C755DF4F1D
:103D40001882C95AD040C855DF4F1882C85AD0408F
:103D5000C955DF4F1882C75AD040DD24AA24CF545A
:103D6000DF4F1882C15BD040CA55DF4F1882C65A58
:103D7000D040C055DF4F1882C05BD040CB55DF4FDD
:103D80001882C55AD040C155DF4F1882CF5AD04053
:103D9000CC55DF4F1882C45AD04031E0C255DF4FB6
:103DA0003883CE5AD040F8C0C755DF4F1882C95A61
:103DB000D040C855DF4F1882C85AD040C955DF4F90
:103DC0001882C75AD040DD24AA24CF54DF4F18826E
:103DD000C15BD040CA55DF4F1882C65AD040C0558B
:103DE000DF4F1882C05BD040CB55DF4F1882C55AD9
:103DF000D040C155DF4F1882CF5AD04041E0CC555A
:103E0000DF4F4883C45AD040C2C0C755DF4F188225
:103E1000C95AD040C855DF4F1882C85AD040C9553A
:103E2000DF4F1882C75AD040DD24AA24CF54DF4F79
:103E30001882C15BD040CA55DF4F1882C65AD040A5
:103E4000C055DF4F1882C05BD040CB55DF4F188282
:103E5000C55AD04051E0C155DF4F5883CF5AD040AA
:103E600091C0C755DF4F1882C95AD040C855DF4F9F
:103E70001882C85AD040C955DF4F1882C75AD0405F
:103E8000DD24AA24CF54DF4F1882C15BD040CA552D
:103E9000DF4F1882C65AD040C055DF4F1882C05B32
:103EA000D04061E0CB55DF4F6883C55AD04065C034
:103EB000C755DF4F1882C95AD040C855DF4F188206
:103EC000C85AD040C955DF4F1882C75AD040DD24A8
:103ED000AA24CF54DF4F1882C15BD040CA55DF4FB0
:103EE0001882C65AD04071E0C055DF4F7883C05B5E
:103EF000D0403EC0C755DF4F1882C95AD040C85580
:103F0000DF4F1882C85AD040C955DF4F1882C75AB0
:103F1000D040DD24AA24CF54DF4F1882C15BD040AB
:103F200081E0CA55DF4F8883C65AD0401CC0C755B0
:103F3000DF4F1882C95AD040C855DF4F1882C85A7F
:103F4000D040C955DF4F1882C75AD040DD24AA247B
:103F500091E0CF54DF4F9883C15BD040CA55DF4F0B
:103F60001882C65AD040C055DF4F1882C05BD0407F
:103F7000CB55DF4F1882C55AD040C155DF4F18824C
:103F8000CF5AD040CC55DF4F1882C45AD040C255CA
:103F9000DF4F1882CE5AD040CD55DF4F1882C35A1A
:103FA000D040C355DF4F1882CD5AD040CE55DF4F99
:103FB0001882C25AD040C455DF4F1882CC5AD04024
:103FC000CF55DF4F1882C15AD0402224C056DF4F50
:103FD0001882C05AD0403324C156DF4F1882CF59BF
:103FE000D0404424C256DF4F1882CE59D0405524C9
:103FF000C356DF4F1882CD59D040772400E06624A5
:10400000C456DF4F1882CC59D040C556DF4F1882B6
:10401000CB59D040C656DF4F1882CA59D04010E065
:104020008824FF249924EE24BB24C756DF4F18822E
:10403000C959D040CC24C555DF4F1882CB5AD04047
:10404000C655DF4F1882CA5AD0404EC1C755DF4F00
:104050001882C95AD04006C0E1E0C755DF4FE88357
:10406000C95AD040C855DF4F1882C85AD040C955E8
:10407000DF4F1882C75AD040DD24AA24CF54DF4F27
:104080001882C15BD0406ACF1192E817F907E1F7B7
:104090008FEF9FEFA0E0B0E08093C0089093C1083D
:1040A000A093C208B093C30881E08093A405109A3E
:1040B000119A129A139A80E090E0A1E0B0E08D830B
:1040C0009E83AF83B887CE54DF4FC882C25BD04097
:1040D000CC54DF4FB882C45BD040CA54DF4FE88273
:1040E000C65BD040C854DF4F9882C85BD0409F2C3D
:1040F000B12EC02E27C0CE01875A9F4FB801A7010D
:1041000020E430E00E94A43C8091C0089091C10856
:10411000A091C208B091C308805C9F4FAF4FBF4FC2
:104120008093C0089093C108A093C208B093C308BD
:10413000D801C701805C9F4FAF4FBF4F8D839E83D7
:10414000AF83B887ED80FE800F811885F0E0EF1611
:10415000F0E0FF06F0E20F07F0E01F0760F2CA543C
:10416000DF4FE880C65BD040F92CC854DF4F988001
:10417000C85BD0401B2DCC54DF4FB880C45BD0400F
:104180000C2DCE54DF4FC880C25BD04010981198E0
:10419000129813981092A4051092C0081092C108AA
:1041A0001092C2081092C3080E947E719DC08C912B
:1041B000FB018083CB0180589F4F11964C91119742
:1041C000FC01408312966C5F7F4FA217B30779F70B
:1041D0005DC0CC54DF4FE881F981C45BD0402191B0
:1041E0003191CC54DF4FF983E883C45BD040CA548B
:1041F000DF4F39832883C65BD040CE54DF4FE88140
:10420000F981C25BD04000A0F1A1E02DC854DF4F7E
:10421000F983E883C85BD040B9016E1B7F0B80E057
:1042200090E0C654DF4F288139814A815B81CA5BA7
:10423000D0400E94988624E630E040E050E00E94A2
:10424000EA86C854DF4F88819981C85BD040821BC1
:10425000930BCE54DF4FE881F981C25BD04081934C
:104260009193CE54DF4FF983E883C25BD040CA54A8
:10427000DF4F48815981C65BD040240F351F3787F7
:1042800026875EE0E439F50709F0A3CF0E943306E4
:104290002BC00E948A730E943D7301C080E0DE0142
:1042A0009096F501E170F07095E0EE0FFF1F9A9582
:1042B000E1F7E05FFD4E9E01205C3F4F9D919193A1
:1042C000A217B307D9F7A0FE05C0C501969587953B
:1042D0000E94487212981092A40590E59CBD91E04E
:1042E0009093E9000C94062ACC2009F442C03F8D3B
:1042F00020E08E8DB901680F711D70930D0B6093D6
:104300000C0B39A120E088A1F901E80FF11DF09311
:104310000F0BE0930E0B3BA120E08AA1A901480FEF
:10432000511D5093110B4093100B3DA120E08CA127
:10433000B901680F711D7093130B6093120B3FA1AD
:1043400020E08EA1F901E80FF11DF093150BE09329
:10435000140B39A520E088A5A901480F511D5093E1
:10436000170B4093160B0E94E67F0E94D90B0E9408
:10437000E67FBB2009F49FC0FE017E96A4EABEE062
:104380009E01225D3F4F80818C93818111968C9399
:104390001197808990968C939097818991968C93B0
:1043A000919780A150968C93509781A151968C93B0
:1043B000519732961296E217F30729F78091190F59
:1043C000282F30E040E050E0C654DF4F2883398387
:1043D0004A835B83CA5BD04044EB5EE0CC54DF4F42
:1043E00059834883C45BD04040535040CE54DF4F84
:1043F00059834883C25BD040CC54DF4FE881F981B8
:10440000C45BD04021913191CC54DF4FF983E883D4
:10441000C45BD040CA54DF4F39832883C65BD04089
:10442000CE54DF4FE881F981C25BD04000A0F1A1FA
:10443000E02DC854DF4FF983E883C85BD040B90151
:104440006E1B7F0B80E090E0C654DF4F28813981DE
:104450004A815B81CA5BD0400E94988624E630E0A6
:1044600040E050E00E94EA86C854DF4F888199817D
:10447000C85BD040821B930BCE54DF4FE881F9819B
:10448000C25BD04081939193CE54DF4FF983E88390
:10449000C25BD040CA54DF4F48815981C65BD040CF
:1044A000240F351F378726875EE0E439F50709F0CA
:1044B000A3CF0E943306AA2009F4E0C38E8D8D831A
:1044C0008F8D8E8388A18F8389A188878AA1898710
:1044D0008BA18A878CA18B878DA18C872D813E81B2
:1044E0004F815885DA01C90180709070A07FBF7339
:1044F000E4E1B695A79597958795EA95D1F786500B
:104500009F4FAF4FBF4F880F991F880F991F9093F0
:104510003C1080933B10DA01C90180709C7FAF7022
:10452000B0706AE0B695A795979587956A95D1F78B
:1045300086509F4FAF4FBF4F880F991F880F991F0D
:1045400090933E1080933D10DA01C9019370A070E2
:10455000B07086509F4FAF4FBF4F880F991F880F85
:10456000991F9093401080933F1029853A854B8581
:104570005C85DA01C90180709070A07FBF73E4E1AF
:10458000B695A79597958795EA95D1F786509F4F51
:10459000AF4FBF4F880F991F880F991F90934210FC
:1045A00080934110DA01C90180709C7FAF70B070B8
:1045B0006AE0B695A795979587956A95D1F7865045
:1045C0009F4FAF4FBF4F880F991F880F991F909330
:1045D000441080934310DA01C9019370A070B07049
:1045E00086509F4FAF4FBF4F880F991F880F991F5D
:1045F00090934610809345108EA18D838FA18E835A
:1046000088A58F8389A588878AA589878BA58A87AE
:104610008CA58B878DA58C872D813E814F815885F8
:10462000DA01C90180709070A07FBF73E4E1B69594
:10463000A79597958795EA95D1F786509F4FAF4FED
:10464000BF4F880F991F880F991F90934810809330
:104650004710DA01C90180709C7FAF70B0706AE0CA
:10466000B695A795979587956A95D1F786509F4FF0
:10467000AF4FBF4F880F991F880F991F90934A1013
:1046800080934910DA01C9019370A070B070865010
:104690009F4FAF4FBF4F880F991F880F991F90935F
:1046A0004C1080934B1029853A854B855C85DA0147
:1046B000C90180709070A07FBF73E4E1B695A795A3
:1046C00097958795EA95D1F786509F4FAF4FBF4F8B
:1046D000880F991F880F991F90934E1080934D104B
:1046E000DA01C90180709C7FAF70B0706AE0B69546
:1046F000A795979587956A95D1F786509F4FAF4FAD
:10470000BF4F880F991F880F991F90935010809367
:104710004F10DA01C9019370A070B07086509F4F9E
:10472000AF4FBF4F880F991F880F991F909352105A
:10473000809351108EA58D838FA58E8388A98F833A
:1047400089A988878AA989878BA98A878CA98B8759
:104750008DA98C872D813E814F815885DA01C90151
:1047600080709070A07FBF73E4E1B695A795979590
:104770008795EA95D1F786509F4FAF4FBF4F880F6F
:10478000991F880F991F9093541080935310DA014A
:10479000C90180709C7FAF70B0706AE0B695A79534
:1047A000979587956A95D1F786509F4FAF4FBF4F2A
:1047B000880F991F880F991F90935610809355105A
:1047C000DA01C9019370A070B07086509F4FAF4F4F
:1047D000BF4F880F991F880F991F9093581080938F
:1047E000571029853A854B855C85DA01C9018070AF
:1047F0009070A07FBF73E4E1B695A79597958795D4
:10480000EA95D1F786509F4FAF4FBF4F880F991F42
:10481000880F991F90935A1080935910DA01C9019B
:1048200080709C7FAF70B0706AE0B695A795979541
:1048300087956A95D1F786509F4FAF4FBF4F880F2E
:10484000991F880F991F90935C1080935B10DA0179
:10485000C9019370A070B07086509F4FAF4FBF4F8B
:10486000880F991F880F991F90935E1080935D1099
:104870008EA98D838FA98E8388AD8F8389AD88871C
:104880008AAD89878BAD8A878CAD8B878DAD8C8700
:104890002D813E814F815885DA01C9018070907069
:1048A000A07FBF73E4E1B695A79597958795EA95A4
:1048B000D1F786509F4FAF4FBF4F880F991F880F7A
:1048C000991F9093601080935F10DA01C901807086
:1048D0009C7FAF70B0706AE0B695A7959795879565
:1048E0006A95D1F786509F4FAF4FBF4F880F991FE2
:1048F000880F991F9093621080936110DA01C901AB
:104900009370A070B07086509F4FAF4FBF4F880F0D
:10491000991F880F991F90936410809363102985C5
:104920003A854B855C85DA01C90180709070A07F63
:10493000BF73E4E1B695A79597958795EA95D1F76A
:1049400086509F4FAF4FBF4F880F991F880F991FF9
:104950009093661080936510DA01C90180709C7F86
:10496000AF70B0706AE0B695A795979587956A95F0
:10497000D1F786509F4FAF4FBF4F880F991F880FB9
:10498000991F9093681080936710DA01C9019370A2
:10499000A070B07086509F4FAF4FBF4F880F991FC8
:1049A000880F991F90936A10809369108EAD8D8344
:1049B0008FAD8E83FE01E05CFF4F80818F83FE010F
:1049C000EF5BFF4F80818887FE01EE5BFF4F8081A8
:1049D0008987FE01ED5BFF4F80818A87FE01EC5BDA
:1049E000FF4F80818B87FE01EB5BFF4F80818C87BF
:1049F0002D813E814F815885DA01C9018070907008
:104A0000A07FBF73E4E1B695A79597958795EA9542
:104A1000D1F786509F4FAF4FBF4F880F991F880F18
:104A2000991F90936C1080936B10DA01C90180700C
:104A30009C7FAF70B0706AE0B695A7959795879503
:104A40006A95D1F786509F4FAF4FBF4F880F991F80
:104A5000880F991F90936E1080936D10DA01C90131
:104A60009370A070B07086509F4FAF4FBF4F880FAC
:104A7000991F880F991F9093701080936F1029854C
:104A80003A854B855C85DA01C90180709070A07F02
:104A9000BF73E4E1B695A79597958795EA95D1F709
:104AA00086509F4FAF4FBF4F880F991F880F991F98
:104AB0009093721080937110DA01C90180709C7F0D
:104AC000AF70B0706AE0B695A795979587956A958F
:104AD000D1F786509F4FAF4FBF4F880F991F880F58
:104AE000991F9093741080937310DA01C901937029
:104AF000A070B07086509F4FAF4FBF4F880F991F67
:104B0000880F991F9093761080937510FE01EA5BD1
:104B1000FF4F80818D83FE01E95BFF4F80818E8393
:104B2000FE01E85BFF4F80818F83FE01E75BFF4F53
:104B300080818887FE01E65BFF4F80818987FE01C7
:104B4000E55BFF4F80818A87FE01E45BFF4F808138
:104B50008B87FE01E35BFF4F80818C872D813E8137
:104B60004F815885DA01C90180709070A07FBF73B2
:104B7000E4E1B695A79597958795EA95D1F7865084
:104B80009F4FAF4FBF4F880F991F880F991F90936A
:104B9000781080937710DA01C90180709C7FAF7024
:104BA000B0706AE0B695A795979587956A95D1F705
:104BB00086509F4FAF4FBF4F880F991F880F991F87
:104BC00090937A1080937910DA01C9019370A070E4
:104BD000B07086509F4FAF4FBF4F880F991F880FFF
:104BE000991F90937C1080937B1029853A854B8583
:104BF0005C85DA01C90180709070A07FBF73E4E129
:104C0000B695A79597958795EA95D1F786509F4FCA
:104C1000AF4FBF4F880F991F880F991F90937E1039
:104C200080937D10DA01C90180709C7FAF70B070F5
:104C30006AE0B695A795979587956A95D1F78650BE
:104C40009F4FAF4FBF4F880F991F880F991F9093A9
:104C5000801080937F10DA01C9019370A070B0704A
:104C600086509F4FAF4FBF4F880F991F880F991FD6
:104C700090938210809381100E9433069920E1F175
:104C80008E8D8093E10E8F8D8093E20EE3EEFEE039
:104C900088A18093E30E89A181838AA18093E70E86
:104CA0008BA185838CA18093E50E8DA183838EA13A
:104CB0008093E90E8FA18093EA0E88A58093EB0E76
:104CC0008AA58093EC0E8BA582878EA58093EE0E2D
:104CD0008FA5848788A98093F00E89A98093F40E0C
:104CE0008AA9828B8BA98093F20E8CA9808B8DA9C7
:104CF0008093F10E0E943306882041F18E8D8093BF
:104D0000FA0E8F8D8093FB0EE8EFFEE088A1809372
:104D1000F80E89A181838AA18093F60E8BA18093DE
:104D2000F70E8CA18093FC0E8DA18093FD0E8EA1B9
:104D30008093FE0E8FA18093FF0E88A5808789A5A2
:104D40008093010F8AA582870E943306772009F499
:104D500041C08E8D8093D40E8F8D8093D50E88A107
:104D60008093911089A18093210F8AA18093D60E00
:104D70008BA18093D70E8CA18093D80E8DA18093A8
:104D8000D90E8EA18093DA0E8FA18093230F88A570
:104D90008093381089A58093220F8AA58093DB0E1B
:104DA0008BA58093DE0E8CA58093DC0E8DA5809361
:104DB000DD0E8EA580931C0F8FA58093DF0E88A932
:104DC0008093E00E89A9809383108AA98093841030
:104DD0000E943306662009F494C08E8D80931D0FC7
:104DE0008F8D80931F0F88A180931E0F89A18093C0
:104DF000200F6AA170E080E090E00E943E842BEDDD
:104E00003FE049E450E40E94A48520E030E044E320
:104E100053E40E94A58360932C0F70932D0F809311
:104E20002E0F90932F0F6BA170E080E090E00E9416
:104E30003E842BED3FE049E450E40E94A48520E04D
:104E400030E044E353E40E94A5836093300F7093F5
:104E5000310F8093320F9093330F6CA1772767FD4A
:104E60007095872F972F0E9440842BED3FE049E4F7
:104E700050E40E94A48520E030E044E353E40E9423
:104E8000A5836093240F7093250F8093260F909332
:104E9000270F6DA1772767FD7095872F972F0E94A9
:104EA00040842BED3FE049E450E40E94A48520E0DB
:104EB00030E044E353E40E94A5836093280F70938D
:104EC000290F80932A0F90932B0F8EA18093161198
:104ED0008FA180936E1198A590936F1199A59093CF
:104EE00071119AA5909370119BA5909372118823CC
:104EF00031F00E949A800E94D90B0E949A800E94F1
:104F00003306552099F18E8D809334108F8D8093C8
:104F1000351088A18093361069A170E080E090E0A0
:104F20000E943E842DEC3CEC4CEC5DE30E94A48599
:104F300060930E1170930F118093101190931111C3
:104F40006AA170E080E090E00E943E842DEC3CEC91
:104F50004CEC5DE30E94A4856093121170931311D1
:104F600080931411909315110E943306442071F020
:104F70008E8D809392108F8D8093931088A1809353
:104F8000941089A1809395100E943306332069F410
:104F90002AC0CD90C192A417B507D9F701962A5F10
:104FA0003F4F8630910569F41CC025E030E080E079
:104FB00090E0BE01675E7F4FEFE1AE2EB12CAC0EEC
:104FC000BD1EDB01A20FB31FFC01EE0FFF1FE80F98
:104FD000F91FEE0FFF1FEA56FF4EA501420F531FA8
:104FE000D8CF0E943306222069F42AC0CD90C19206
:104FF000A417B507D9F701962A5F3F4F8630910570
:1050000069F41CC025E030E080E090E0BE01675EFE
:105010007F4FEFE1AE2EB12CAC0EBD1EDB01A20F17
:10502000B31FFC01EE0FFF1FE80FF91FEE0FFF1F6C
:10503000E654FF4EA501420F531FD8CF0E943306FE
:10504000C455DF4F6881CC5AD040662369F42AC02A
:10505000CD90C192A417B507D9F701962A5F3F4FAB
:105060008630910569F41CC025E030E080E090E0D6
:10507000BE01675E7F4FEFE1AE2EB12CAC0EBD1EC0
:10508000DB01A20FB31FFC01EE0FFF1FE80FF91F9A
:10509000EE0FFF1FE252FF4EA501420F531FD8CF64
:1050A0000E943306C355DF4F7881CD5AD040772315
:1050B00031F1CE014996FE017E96A8E0B1E19E0154
:1050C0002C5D3F4F41914D93E217F307D9F7FE0155
:1050D000B496A2E0B1E19C012F5E3F4F41914D9308
:1050E000E217F307D9F7FE01BA96A3E2B1E14796BA
:1050F00021912D93E817F907D9F70E943306C2557D
:10510000DF4F8881CE5AD040882309F446C06E8D87
:10511000772767FD7095872F972F0E9440842BED8E
:105120003FE049E450E40E94A48520E030E044E3FD
:1051300053E40E94A58360931B1170931C1180930C
:105140001D1190931E116F8D772767FD7095872F26
:10515000972F0E9440842BED3FE049E450E40E94E9
:10516000A48520E030E044E353E40E94A5836093EB
:105170001711709318118093191190931A1188A127
:1051800080931F1189A1809320118AA180932111FE
:105190008BA1809322110E943306C155DF4F988165
:1051A000CF5AD040992349F18E8D809329118F8D4C
:1051B00080932A1188A180932B1189A180932C11AF
:1051C0008AA180932D118BA180932E118CA18093A5
:1051D0002F118DA1809330118EA1809331118FA159
:1051E0008093321188A58093331189A5809334115F
:1051F0008AA5809335110E943306C055DF4FE881A0
:10520000C05BD040EE2309F44DC08E8D80933611E3
:105210008F8D8093371188A18093381159A15093B5
:105220003911FE0179968DE79EE040E0BD2C31C03A
:10523000DC01A954BD4F8480C154DF4F8882CF5B0D
:10524000D040C254DF4F1882CE5BD040D380C254CE
:10525000DF4F28813981CE5BD0402D0D311D2D933C
:105260003C93DC01A754BD4F368120E0D580B901C5
:105270006D0D711D6D937C93DC01A554BD4F708540
:1052800060E0D7804B018D0C911C11969C928E9200
:105290004F5F451720F436960696483049F6DB2CCA
:1052A0000E943306CF54DF4F9880C15BD0409920D5
:1052B00081F08E8D80936D11FE017F96A3E7B1E1A1
:1052C000CE01879621912D93E817F907D9F70E940F
:1052D0003306C655DF4F2881CA5AD040222301F138
:1052E0000E947C718091E00081608093E0001098C2
:1052F000119812981398F8940E94AC0B7894109A15
:1053000085E59AEAAAEAB5E580939C1290939D12EE
:10531000A0939E12B0939F1285E00E945535FFCF57
:10532000C555DF4F3881CB5AD040332309F47FC0B5
:105330000E947C7189899A89AB89BC898D879E87F7
:10534000AF87B88BCC24C39439E5832E912C8C0E77
:105350009D1E25E5522E9DE0A92EB12CAC0EBD1E42
:105360008CE3682E712C680C791C37C0C092E90060
:105370008091E80085FFFCCF6D857E858F859889BB
:105380002CE330E040E050E00E949886AB01BC0185
:10539000C4012CE330E00E94293A5092F100F5015B
:1053A00080818093F10081818093F10082818093DC
:1053B000F100F40181918093F100E615F705D1F732
:1053C0000E943F068D859E85AF85B8890196A11DF7
:1053D000B11D8D879E87AF87B88B2D893E894F89F8
:1053E000588D89899A89AB89BC89280F391F4A1F32
:1053F0005B1F8D859E85AF85B88982179307A407AB
:10540000B50708F4B3CF0E947E7111C09091E800F7
:1054100095FFFCCF9FE09093F1009B819093F1006A
:105420009C819093F1008093F1000E943F06EE2052
:1054300009F467C081E08093E9008091E80085FF6E
:10544000FCCF87E58093F1008091E10E8093F1001D
:105450008091E20E8093F1008091E30E8093F10041
:105460008091E40E8093F1008091E70E8093F1002B
:105470008091E80E8093F1008091E50E8093F10019
:105480008091E60E8093F1008091E90E8093F10007
:105490008091EA0E8093F1008091EB0E8093F100F1
:1054A0008FEF8093F1009091EC0E9093F10090912A
:1054B000ED0E9093F1008093F1008093F1008091C4
:1054C000EE0E8093F1008091EF0E8093F1008091B9
:1054D000F00E8093F1008091F40E8093F1008091A2
:1054E000F50E8093F1008091F20E8093F10080918F
:1054F000F30E8093F1008091F10E8093F1000E94F1
:105500003F06FF2009F440C081E08093E9008091CC
:10551000E80085FFFCCF8AE78093F1008091FA0EC6
:105520008093F1008091FB0E8093F1008091F80E42
:105530008093F1008091F90E8093F1008091F60E36
:105540008093F1008091F70E8093F1008091FC0E22
:105550008093F1008091FD0E8093F1008091FE0E0A
:105560008093F1008091FF0E8093F1008091000FF5
:105570008093F1008091010F8093F1008091020FE0
:105580008093F1000E943F06002309F460C081E08F
:105590008093E9008091E80085FFFCCF89E5809346
:1055A000F1008091D40E8093F1008091D50E80930C
:1055B000F100809191108093F1008091210F8093F0
:1055C000F1008091D60E8093F1008091D70E8093E8
:1055D000F1008091D80E8093F1008091D90E8093D4
:1055E000F1008091DA0E8093F1008091230F809377
:1055F000F100809138108093F1008091220F809308
:10560000F1008091DB0E8093F1008091DE0E80939B
:10561000F1008091DC0E8093F1008091DD0E80938B
:10562000F10080911C0F8093F1008091DF0E809338
:10563000F1008091E00E8093F100809183108093BF
:10564000F100809184108093F1000E943F061123A5
:1056500001F181E08093E9008091E80085FFFCCFB3
:1056600086E68093F1008091170F8093F10080917E
:10567000180F8093F1008091190F8093F1008091B1
:105680001A0F8093F10080911B0F8093F1000E940C
:105690003F06DD2049F181E08093E9008091E80038
:1056A00085FFFCCFC955DF4FF881C75AD040F09332
:1056B000F100C855DF4F8880C85AD040882D90E04F
:1056C000FC01EC5CF04F8C54904F20812093F10052
:1056D000DF01A058BF4F2C912093F1003496E817BA
:1056E000F90799F70E943F06C656DF4F9880CA59BE
:1056F000D040992009F445C081E08093E900809171
:10570000E80085FFFCCF81E68093F1008091130FC4
:105710008093F1008091140F8093F1001092F100BA
:105720001092F1001092F1001092F1008091B108F6
:105730008093F1008091B2088093F1008091B308CA
:105740008093F1008091B4088093F1008091AD08BE
:105750008093F1008091AE088093F1008091AF08B2
:105760008093F1008091B0088093F10088E490E08C
:105770009A8389838093F1008A818093F1000E944B
:105780003F06C756DF4F2881C959D040222321F157
:1057900081E08093E9008091E80085FFFCCF80E7FD
:1057A0008093F1006091030F7091040F8091050FB9
:1057B0009091060F20E030E044E353E40E94A4857A
:1057C0002BED3FE049E450E40E94A5830E940D8444
:1057D0006093F1000E943F06C556DF4F3881CB59D8
:1057E000D040332361F181E08093E9008091E800AB
:1057F00085FFFCCF81E78093F10080917D0E80933F
:10580000F10080917E0E8093F10080917F0E809355
:10581000F1008091800E8093F1008091810E809341
:10582000F10080916A118093F10080916B11809357
:10583000F10080916C118093F1000E943F06C456E4
:10584000DF4F4881CC59D040442309F494C081E013
:105850008093E9008091E80085FFFCCF82E7809388
:10586000F10080911D0F8093F10080911F0F8093B4
:10587000F10080911E0F8093F1008091200F8093A2
:10588000F10060912C0F70912D0F80912E0F90914F
:105890002F0F20E030E044E353E40E94A4852BED79
:1058A0003FE049E450E40E94A5830E941284609383
:1058B000F1006091300F7091310F8091320F909113
:1058C000330F20E030E044E353E40E94A4852BED45
:1058D0003FE049E450E40E94A5830E941284609353
:1058E000F1006091240F7091250F8091260F909107
:1058F000270F20E030E044E353E40E94A4852BED21
:105900003FE049E450E40E94A5830E940D84609327
:10591000F1006091280F7091290F80912A0F9091CA
:105920002B0F20E030E044E353E40E94A4852BEDEC
:105930003FE049E450E40E94A5830E940D846093F7
:10594000F100809116118093F10080916E11809387
:10595000F10080916F118093F1008091711180931B
:10596000F100809170118093F10080917211809309
:10597000F1000E943F06C755DF4F5881C95AD040F9
:105980005523E9F081E08093E9008091E80085FFEC
:10599000FCCF83E78093F10081E08093F1009BE1ED
:1059A0009093F1008093F10080E18093F1008CE00E
:1059B0008093F1008DE08093F1000E943F06C35672
:1059C000DF4F6881CD59D0406623E1F181E08093BB
:1059D000E9008091E80085FFFCCF8BE78093F10020
:1059E000809134108093F100809135108093F10004
:1059F000809136108093F10060910E1170910F111B
:105A0000809110119091111120E030E040E251E4BA
:105A10000E94A4850E9412846093F100609112118B
:105A200070911311809114119091151120E030E0C4
:105A300040E251E40E94A4850E9412846093F10028
:105A40000E943F06C256DF4F7881CE59D04077235F
:105A5000E1F081E08093E9008091E80085FFFCCFD0
:105A60008DE78093F100809192108093F1008091F6
:105A700093108093F100809194108093F1008091B5
:105A800095108093F1000E943F06C156DF4F888138
:105A9000CF59D040882341F181E08093E900809183
:105AA000E80085FFFCCF8EE78093F1002CE930E120
:105AB00080E090E00DC041914093F100E217F307C0
:105AC000D1F701969F012A5F3F4F8630910551F033
:105AD000FC01EE0FFF1FE80FF91FEE0FFF1FEA5644
